{
	"contracts/Struct.sol": {
		"team": {
			"abi": [
				{
					"inputs": [
						{
							"internalType": "string",
							"name": "_firstname",
							"type": "string"
						},
						{
							"internalType": "string",
							"name": "_secondname",
							"type": "string"
						},
						{
							"internalType": "uint256",
							"name": "_age",
							"type": "uint256"
						},
						{
							"internalType": "string",
							"name": "_gender",
							"type": "string"
						}
					],
					"name": "addplayer",
					"outputs": [],
					"stateMutability": "nonpayable",
					"type": "function"
				},
				{
					"inputs": [],
					"name": "number",
					"outputs": [
						{
							"internalType": "uint256",
							"name": "",
							"type": "uint256"
						}
					],
					"stateMutability": "view",
					"type": "function"
				},
				{
					"inputs": [
						{
							"internalType": "uint256",
							"name": "",
							"type": "uint256"
						}
					],
					"name": "players",
					"outputs": [
						{
							"internalType": "string",
							"name": "firstname",
							"type": "string"
						},
						{
							"internalType": "string",
							"name": "secondname",
							"type": "string"
						},
						{
							"internalType": "uint256",
							"name": "age",
							"type": "uint256"
						},
						{
							"internalType": "string",
							"name": "gender",
							"type": "string"
						}
					],
					"stateMutability": "view",
					"type": "function"
				}
			],
			"devdoc": {
				"kind": "dev",
				"methods": {},
				"version": 1
			},
			"evm": {
				"assembly": "    /* \"contracts/Struct.sol\":69:530  contract team {... */\n  mstore(0x40, 0x80)\n    /* \"contracts/Struct.sol\":111:112  1 */\n  0x01\n    /* \"contracts/Struct.sol\":90:112  uint public number = 1 */\n  0x00\n  sstore\n    /* \"contracts/Struct.sol\":69:530  contract team {... */\n  callvalue\n  dup1\n  iszero\n  tag_1\n  jumpi\n  0x00\n  dup1\n  revert\ntag_1:\n  pop\n  dataSize(sub_0)\n  dup1\n  dataOffset(sub_0)\n  0x00\n  codecopy\n  0x00\n  return\nstop\n\nsub_0: assembly {\n        /* \"contracts/Struct.sol\":69:530  contract team {... */\n      mstore(0x40, 0x80)\n      callvalue\n      dup1\n      iszero\n      tag_1\n      jumpi\n      0x00\n      dup1\n      revert\n    tag_1:\n      pop\n      jumpi(tag_2, lt(calldatasize, 0x04))\n      shr(0xe0, calldataload(0x00))\n      dup1\n      0x8381f58a\n      eq\n      tag_3\n      jumpi\n      dup1\n      0x8481f461\n      eq\n      tag_4\n      jumpi\n      dup1\n      0xf71d96cb\n      eq\n      tag_5\n      jumpi\n    tag_2:\n      0x00\n      dup1\n      revert\n        /* \"contracts/Struct.sol\":90:112  uint public number = 1 */\n    tag_3:\n      tag_6\n      tag_7\n      jump\t// in\n    tag_6:\n      mload(0x40)\n      tag_8\n      swap2\n      swap1\n      tag_9\n      jump\t// in\n    tag_8:\n      mload(0x40)\n      dup1\n      swap2\n      sub\n      swap1\n      return\n        /* \"contracts/Struct.sol\":289:527  function addplayer(string memory _firstname, string memory _secondname, uint _age, string memory _gender) public {... */\n    tag_4:\n      tag_10\n      0x04\n      dup1\n      calldatasize\n      sub\n      dup2\n      add\n      swap1\n      tag_11\n      swap2\n      swap1\n      tag_12\n      jump\t// in\n    tag_11:\n      tag_13\n      jump\t// in\n    tag_10:\n      stop\n        /* \"contracts/Struct.sol\":257:280  player[] public players */\n    tag_5:\n      tag_14\n      0x04\n      dup1\n      calldatasize\n      sub\n      dup2\n      add\n      swap1\n      tag_15\n      swap2\n      swap1\n      tag_16\n      jump\t// in\n    tag_15:\n      tag_17\n      jump\t// in\n    tag_14:\n      mload(0x40)\n      tag_18\n      swap5\n      swap4\n      swap3\n      swap2\n      swap1\n      tag_19\n      jump\t// in\n    tag_18:\n      mload(0x40)\n      dup1\n      swap2\n      sub\n      swap1\n      return\n        /* \"contracts/Struct.sol\":90:112  uint public number = 1 */\n    tag_7:\n      sload(0x00)\n      dup2\n      jump\t// out\n        /* \"contracts/Struct.sol\":289:527  function addplayer(string memory _firstname, string memory _secondname, uint _age, string memory _gender) public {... */\n    tag_13:\n        /* \"contracts/Struct.sol\":413:436  player memory newPlayer */\n      0x00\n        /* \"contracts/Struct.sol\":439:485  player(_firstname, _secondname, _age, _gender) */\n      mload(0x40)\n      dup1\n      0x80\n      add\n      0x40\n      mstore\n      dup1\n        /* \"contracts/Struct.sol\":446:456  _firstname */\n      dup7\n        /* \"contracts/Struct.sol\":439:485  player(_firstname, _secondname, _age, _gender) */\n      dup2\n      mstore\n      0x20\n      add\n        /* \"contracts/Struct.sol\":458:469  _secondname */\n      dup6\n        /* \"contracts/Struct.sol\":439:485  player(_firstname, _secondname, _age, _gender) */\n      dup2\n      mstore\n      0x20\n      add\n        /* \"contracts/Struct.sol\":471:475  _age */\n      dup5\n        /* \"contracts/Struct.sol\":439:485  player(_firstname, _secondname, _age, _gender) */\n      dup2\n      mstore\n      0x20\n      add\n        /* \"contracts/Struct.sol\":477:484  _gender */\n      dup4\n        /* \"contracts/Struct.sol\":439:485  player(_firstname, _secondname, _age, _gender) */\n      dup2\n      mstore\n      pop\n        /* \"contracts/Struct.sol\":413:485  player memory newPlayer = player(_firstname, _secondname, _age, _gender) */\n      swap1\n      pop\n        /* \"contracts/Struct.sol\":496:503  players */\n      0x01\n        /* \"contracts/Struct.sol\":509:518  newPlayer */\n      dup2\n        /* \"contracts/Struct.sol\":496:519  players.push(newPlayer) */\n      swap1\n      dup1\n      0x01\n      dup2\n      sload\n      add\n      dup1\n      dup3\n      sstore\n      dup1\n      swap2\n      pop\n      pop\n      0x01\n      swap1\n      sub\n      swap1\n      0x00\n      mstore\n      keccak256(0x00, 0x20)\n      swap1\n      0x04\n      mul\n      add\n      0x00\n      swap1\n      swap2\n      swap1\n      swap2\n      swap1\n      swap2\n      pop\n      0x00\n      dup3\n      add\n      mload\n      dup2\n      0x00\n      add\n      swap1\n      dup2\n      tag_22\n      swap2\n      swap1\n      tag_23\n      jump\t// in\n    tag_22:\n      pop\n      0x20\n      dup3\n      add\n      mload\n      dup2\n      0x01\n      add\n      swap1\n      dup2\n      tag_24\n      swap2\n      swap1\n      tag_23\n      jump\t// in\n    tag_24:\n      pop\n      0x40\n      dup3\n      add\n      mload\n      dup2\n      0x02\n      add\n      sstore\n      0x60\n      dup3\n      add\n      mload\n      dup2\n      0x03\n      add\n      swap1\n      dup2\n      tag_25\n      swap2\n      swap1\n      tag_23\n      jump\t// in\n    tag_25:\n      pop\n      pop\n      pop\n        /* \"contracts/Struct.sol\":402:527  {... */\n      pop\n        /* \"contracts/Struct.sol\":289:527  function addplayer(string memory _firstname, string memory _secondname, uint _age, string memory _gender) public {... */\n      pop\n      pop\n      pop\n      pop\n      jump\t// out\n        /* \"contracts/Struct.sol\":257:280  player[] public players */\n    tag_17:\n      0x01\n      dup2\n      dup2\n      sload\n      dup2\n      lt\n      tag_26\n      jumpi\n      0x00\n      dup1\n      revert\n    tag_26:\n      swap1\n      0x00\n      mstore\n      keccak256(0x00, 0x20)\n      swap1\n      0x04\n      mul\n      add\n      0x00\n      swap2\n      pop\n      swap1\n      pop\n      dup1\n      0x00\n      add\n      dup1\n      sload\n      tag_28\n      swap1\n      tag_29\n      jump\t// in\n    tag_28:\n      dup1\n      0x1f\n      add\n      0x20\n      dup1\n      swap2\n      div\n      mul\n      0x20\n      add\n      mload(0x40)\n      swap1\n      dup2\n      add\n      0x40\n      mstore\n      dup1\n      swap3\n      swap2\n      swap1\n      dup2\n      dup2\n      mstore\n      0x20\n      add\n      dup3\n      dup1\n      sload\n      tag_30\n      swap1\n      tag_29\n      jump\t// in\n    tag_30:\n      dup1\n      iszero\n      tag_31\n      jumpi\n      dup1\n      0x1f\n      lt\n      tag_32\n      jumpi\n      0x0100\n      dup1\n      dup4\n      sload\n      div\n      mul\n      dup4\n      mstore\n      swap2\n      0x20\n      add\n      swap2\n      jump(tag_31)\n    tag_32:\n      dup3\n      add\n      swap2\n      swap1\n      0x00\n      mstore\n      keccak256(0x00, 0x20)\n      swap1\n    tag_33:\n      dup2\n      sload\n      dup2\n      mstore\n      swap1\n      0x01\n      add\n      swap1\n      0x20\n      add\n      dup1\n      dup4\n      gt\n      tag_33\n      jumpi\n      dup3\n      swap1\n      sub\n      0x1f\n      and\n      dup3\n      add\n      swap2\n    tag_31:\n      pop\n      pop\n      pop\n      pop\n      pop\n      swap1\n      dup1\n      0x01\n      add\n      dup1\n      sload\n      tag_34\n      swap1\n      tag_29\n      jump\t// in\n    tag_34:\n      dup1\n      0x1f\n      add\n      0x20\n      dup1\n      swap2\n      div\n      mul\n      0x20\n      add\n      mload(0x40)\n      swap1\n      dup2\n      add\n      0x40\n      mstore\n      dup1\n      swap3\n      swap2\n      swap1\n      dup2\n      dup2\n      mstore\n      0x20\n      add\n      dup3\n      dup1\n      sload\n      tag_35\n      swap1\n      tag_29\n      jump\t// in\n    tag_35:\n      dup1\n      iszero\n      tag_36\n      jumpi\n      dup1\n      0x1f\n      lt\n      tag_37\n      jumpi\n      0x0100\n      dup1\n      dup4\n      sload\n      div\n      mul\n      dup4\n      mstore\n      swap2\n      0x20\n      add\n      swap2\n      jump(tag_36)\n    tag_37:\n      dup3\n      add\n      swap2\n      swap1\n      0x00\n      mstore\n      keccak256(0x00, 0x20)\n      swap1\n    tag_38:\n      dup2\n      sload\n      dup2\n      mstore\n      swap1\n      0x01\n      add\n      swap1\n      0x20\n      add\n      dup1\n      dup4\n      gt\n      tag_38\n      jumpi\n      dup3\n      swap1\n      sub\n      0x1f\n      and\n      dup3\n      add\n      swap2\n    tag_36:\n      pop\n      pop\n      pop\n      pop\n      pop\n      swap1\n      dup1\n      0x02\n      add\n      sload\n      swap1\n      dup1\n      0x03\n      add\n      dup1\n      sload\n      tag_39\n      swap1\n      tag_29\n      jump\t// in\n    tag_39:\n      dup1\n      0x1f\n      add\n      0x20\n      dup1\n      swap2\n      div\n      mul\n      0x20\n      add\n      mload(0x40)\n      swap1\n      dup2\n      add\n      0x40\n      mstore\n      dup1\n      swap3\n      swap2\n      swap1\n      dup2\n      dup2\n      mstore\n      0x20\n      add\n      dup3\n      dup1\n      sload\n      tag_40\n      swap1\n      tag_29\n      jump\t// in\n    tag_40:\n      dup1\n      iszero\n      tag_41\n      jumpi\n      dup1\n      0x1f\n      lt\n      tag_42\n      jumpi\n      0x0100\n      dup1\n      dup4\n      sload\n      div\n      mul\n      dup4\n      mstore\n      swap2\n      0x20\n      add\n      swap2\n      jump(tag_41)\n    tag_42:\n      dup3\n      add\n      swap2\n      swap1\n      0x00\n      mstore\n      keccak256(0x00, 0x20)\n      swap1\n    tag_43:\n      dup2\n      sload\n      dup2\n      mstore\n      swap1\n      0x01\n      add\n      swap1\n      0x20\n      add\n      dup1\n      dup4\n      gt\n      tag_43\n      jumpi\n      dup3\n      swap1\n      sub\n      0x1f\n      and\n      dup3\n      add\n      swap2\n    tag_41:\n      pop\n      pop\n      pop\n      pop\n      pop\n      swap1\n      pop\n      dup5\n      jump\t// out\n        /* \"#utility.yul\":7:84   */\n    tag_44:\n        /* \"#utility.yul\":44:51   */\n      0x00\n        /* \"#utility.yul\":73:78   */\n      dup2\n        /* \"#utility.yul\":62:78   */\n      swap1\n      pop\n        /* \"#utility.yul\":7:84   */\n      swap2\n      swap1\n      pop\n      jump\t// out\n        /* \"#utility.yul\":90:208   */\n    tag_45:\n        /* \"#utility.yul\":177:201   */\n      tag_84\n        /* \"#utility.yul\":195:200   */\n      dup2\n        /* \"#utility.yul\":177:201   */\n      tag_44\n      jump\t// in\n    tag_84:\n        /* \"#utility.yul\":172:175   */\n      dup3\n        /* \"#utility.yul\":165:202   */\n      mstore\n        /* \"#utility.yul\":90:208   */\n      pop\n      pop\n      jump\t// out\n        /* \"#utility.yul\":214:436   */\n    tag_9:\n        /* \"#utility.yul\":307:311   */\n      0x00\n        /* \"#utility.yul\":345:347   */\n      0x20\n        /* \"#utility.yul\":334:343   */\n      dup3\n        /* \"#utility.yul\":330:348   */\n      add\n        /* \"#utility.yul\":322:348   */\n      swap1\n      pop\n        /* \"#utility.yul\":358:429   */\n      tag_86\n        /* \"#utility.yul\":426:427   */\n      0x00\n        /* \"#utility.yul\":415:424   */\n      dup4\n        /* \"#utility.yul\":411:428   */\n      add\n        /* \"#utility.yul\":402:408   */\n      dup5\n        /* \"#utility.yul\":358:429   */\n      tag_45\n      jump\t// in\n    tag_86:\n        /* \"#utility.yul\":214:436   */\n      swap3\n      swap2\n      pop\n      pop\n      jump\t// out\n        /* \"#utility.yul\":442:517   */\n    tag_46:\n        /* \"#utility.yul\":475:481   */\n      0x00\n        /* \"#utility.yul\":508:510   */\n      0x40\n        /* \"#utility.yul\":502:511   */\n      mload\n        /* \"#utility.yul\":492:511   */\n      swap1\n      pop\n        /* \"#utility.yul\":442:517   */\n      swap1\n      jump\t// out\n        /* \"#utility.yul\":523:640   */\n    tag_47:\n        /* \"#utility.yul\":632:633   */\n      0x00\n        /* \"#utility.yul\":629:630   */\n      dup1\n        /* \"#utility.yul\":622:634   */\n      revert\n        /* \"#utility.yul\":646:763   */\n    tag_48:\n        /* \"#utility.yul\":755:756   */\n      0x00\n        /* \"#utility.yul\":752:753   */\n      dup1\n        /* \"#utility.yul\":745:757   */\n      revert\n        /* \"#utility.yul\":769:886   */\n    tag_49:\n        /* \"#utility.yul\":878:879   */\n      0x00\n        /* \"#utility.yul\":875:876   */\n      dup1\n        /* \"#utility.yul\":868:880   */\n      revert\n        /* \"#utility.yul\":892:1009   */\n    tag_50:\n        /* \"#utility.yul\":1001:1002   */\n      0x00\n        /* \"#utility.yul\":998:999   */\n      dup1\n        /* \"#utility.yul\":991:1003   */\n      revert\n        /* \"#utility.yul\":1015:1117   */\n    tag_51:\n        /* \"#utility.yul\":1056:1062   */\n      0x00\n        /* \"#utility.yul\":1107:1109   */\n      0x1f\n        /* \"#utility.yul\":1103:1110   */\n      not\n        /* \"#utility.yul\":1098:1100   */\n      0x1f\n        /* \"#utility.yul\":1091:1096   */\n      dup4\n        /* \"#utility.yul\":1087:1101   */\n      add\n        /* \"#utility.yul\":1083:1111   */\n      and\n        /* \"#utility.yul\":1073:1111   */\n      swap1\n      pop\n        /* \"#utility.yul\":1015:1117   */\n      swap2\n      swap1\n      pop\n      jump\t// out\n        /* \"#utility.yul\":1123:1303   */\n    tag_52:\n        /* \"#utility.yul\":1171:1248   */\n      0x4e487b7100000000000000000000000000000000000000000000000000000000\n        /* \"#utility.yul\":1168:1169   */\n      0x00\n        /* \"#utility.yul\":1161:1249   */\n      mstore\n        /* \"#utility.yul\":1268:1272   */\n      0x41\n        /* \"#utility.yul\":1265:1266   */\n      0x04\n        /* \"#utility.yul\":1258:1273   */\n      mstore\n        /* \"#utility.yul\":1292:1296   */\n      0x24\n        /* \"#utility.yul\":1289:1290   */\n      0x00\n        /* \"#utility.yul\":1282:1297   */\n      revert\n        /* \"#utility.yul\":1309:1590   */\n    tag_53:\n        /* \"#utility.yul\":1392:1419   */\n      tag_95\n        /* \"#utility.yul\":1414:1418   */\n      dup3\n        /* \"#utility.yul\":1392:1419   */\n      tag_51\n      jump\t// in\n    tag_95:\n        /* \"#utility.yul\":1384:1390   */\n      dup2\n        /* \"#utility.yul\":1380:1420   */\n      add\n        /* \"#utility.yul\":1522:1528   */\n      dup2\n        /* \"#utility.yul\":1510:1520   */\n      dup2\n        /* \"#utility.yul\":1507:1529   */\n      lt\n        /* \"#utility.yul\":1486:1504   */\n      0xffffffffffffffff\n        /* \"#utility.yul\":1474:1484   */\n      dup3\n        /* \"#utility.yul\":1471:1505   */\n      gt\n        /* \"#utility.yul\":1468:1530   */\n      or\n        /* \"#utility.yul\":1465:1553   */\n      iszero\n      tag_96\n      jumpi\n        /* \"#utility.yul\":1533:1551   */\n      tag_97\n      tag_52\n      jump\t// in\n    tag_97:\n        /* \"#utility.yul\":1465:1553   */\n    tag_96:\n        /* \"#utility.yul\":1573:1583   */\n      dup1\n        /* \"#utility.yul\":1569:1571   */\n      0x40\n        /* \"#utility.yul\":1562:1584   */\n      mstore\n        /* \"#utility.yul\":1352:1590   */\n      pop\n        /* \"#utility.yul\":1309:1590   */\n      pop\n      pop\n      jump\t// out\n        /* \"#utility.yul\":1596:1725   */\n    tag_54:\n        /* \"#utility.yul\":1630:1636   */\n      0x00\n        /* \"#utility.yul\":1657:1677   */\n      tag_99\n      tag_46\n      jump\t// in\n    tag_99:\n        /* \"#utility.yul\":1647:1677   */\n      swap1\n      pop\n        /* \"#utility.yul\":1686:1719   */\n      tag_100\n        /* \"#utility.yul\":1714:1718   */\n      dup3\n        /* \"#utility.yul\":1706:1712   */\n      dup3\n        /* \"#utility.yul\":1686:1719   */\n      tag_53\n      jump\t// in\n    tag_100:\n        /* \"#utility.yul\":1596:1725   */\n      swap2\n      swap1\n      pop\n      jump\t// out\n        /* \"#utility.yul\":1731:2039   */\n    tag_55:\n        /* \"#utility.yul\":1793:1797   */\n      0x00\n        /* \"#utility.yul\":1883:1901   */\n      0xffffffffffffffff\n        /* \"#utility.yul\":1875:1881   */\n      dup3\n        /* \"#utility.yul\":1872:1902   */\n      gt\n        /* \"#utility.yul\":1869:1925   */\n      iszero\n      tag_102\n      jumpi\n        /* \"#utility.yul\":1905:1923   */\n      tag_103\n      tag_52\n      jump\t// in\n    tag_103:\n        /* \"#utility.yul\":1869:1925   */\n    tag_102:\n        /* \"#utility.yul\":1943:1972   */\n      tag_104\n        /* \"#utility.yul\":1965:1971   */\n      dup3\n        /* \"#utility.yul\":1943:1972   */\n      tag_51\n      jump\t// in\n    tag_104:\n        /* \"#utility.yul\":1935:1972   */\n      swap1\n      pop\n        /* \"#utility.yul\":2027:2031   */\n      0x20\n        /* \"#utility.yul\":2021:2025   */\n      dup2\n        /* \"#utility.yul\":2017:2032   */\n      add\n        /* \"#utility.yul\":2009:2032   */\n      swap1\n      pop\n        /* \"#utility.yul\":1731:2039   */\n      swap2\n      swap1\n      pop\n      jump\t// out\n        /* \"#utility.yul\":2045:2191   */\n    tag_56:\n        /* \"#utility.yul\":2142:2148   */\n      dup3\n        /* \"#utility.yul\":2137:2140   */\n      dup2\n        /* \"#utility.yul\":2132:2135   */\n      dup4\n        /* \"#utility.yul\":2119:2149   */\n      calldatacopy\n        /* \"#utility.yul\":2183:2184   */\n      0x00\n        /* \"#utility.yul\":2174:2180   */\n      dup4\n        /* \"#utility.yul\":2169:2172   */\n      dup4\n        /* \"#utility.yul\":2165:2181   */\n      add\n        /* \"#utility.yul\":2158:2185   */\n      mstore\n        /* \"#utility.yul\":2045:2191   */\n      pop\n      pop\n      pop\n      jump\t// out\n        /* \"#utility.yul\":2197:2622   */\n    tag_57:\n        /* \"#utility.yul\":2275:2280   */\n      0x00\n        /* \"#utility.yul\":2300:2366   */\n      tag_107\n        /* \"#utility.yul\":2316:2365   */\n      tag_108\n        /* \"#utility.yul\":2358:2364   */\n      dup5\n        /* \"#utility.yul\":2316:2365   */\n      tag_55\n      jump\t// in\n    tag_108:\n        /* \"#utility.yul\":2300:2366   */\n      tag_54\n      jump\t// in\n    tag_107:\n        /* \"#utility.yul\":2291:2366   */\n      swap1\n      pop\n        /* \"#utility.yul\":2389:2395   */\n      dup3\n        /* \"#utility.yul\":2382:2387   */\n      dup2\n        /* \"#utility.yul\":2375:2396   */\n      mstore\n        /* \"#utility.yul\":2427:2431   */\n      0x20\n        /* \"#utility.yul\":2420:2425   */\n      dup2\n        /* \"#utility.yul\":2416:2432   */\n      add\n        /* \"#utility.yul\":2465:2468   */\n      dup5\n        /* \"#utility.yul\":2456:2462   */\n      dup5\n        /* \"#utility.yul\":2451:2454   */\n      dup5\n        /* \"#utility.yul\":2447:2463   */\n      add\n        /* \"#utility.yul\":2444:2469   */\n      gt\n        /* \"#utility.yul\":2441:2553   */\n      iszero\n      tag_109\n      jumpi\n        /* \"#utility.yul\":2472:2551   */\n      tag_110\n      tag_50\n      jump\t// in\n    tag_110:\n        /* \"#utility.yul\":2441:2553   */\n    tag_109:\n        /* \"#utility.yul\":2562:2616   */\n      tag_111\n        /* \"#utility.yul\":2609:2615   */\n      dup5\n        /* \"#utility.yul\":2604:2607   */\n      dup3\n        /* \"#utility.yul\":2599:2602   */\n      dup6\n        /* \"#utility.yul\":2562:2616   */\n      tag_56\n      jump\t// in\n    tag_111:\n        /* \"#utility.yul\":2281:2622   */\n      pop\n        /* \"#utility.yul\":2197:2622   */\n      swap4\n      swap3\n      pop\n      pop\n      pop\n      jump\t// out\n        /* \"#utility.yul\":2642:2982   */\n    tag_58:\n        /* \"#utility.yul\":2698:2703   */\n      0x00\n        /* \"#utility.yul\":2747:2750   */\n      dup3\n        /* \"#utility.yul\":2740:2744   */\n      0x1f\n        /* \"#utility.yul\":2732:2738   */\n      dup4\n        /* \"#utility.yul\":2728:2745   */\n      add\n        /* \"#utility.yul\":2724:2751   */\n      slt\n        /* \"#utility.yul\":2714:2836   */\n      tag_113\n      jumpi\n        /* \"#utility.yul\":2755:2834   */\n      tag_114\n      tag_49\n      jump\t// in\n    tag_114:\n        /* \"#utility.yul\":2714:2836   */\n    tag_113:\n        /* \"#utility.yul\":2872:2878   */\n      dup2\n        /* \"#utility.yul\":2859:2879   */\n      calldataload\n        /* \"#utility.yul\":2897:2976   */\n      tag_115\n        /* \"#utility.yul\":2972:2975   */\n      dup5\n        /* \"#utility.yul\":2964:2970   */\n      dup3\n        /* \"#utility.yul\":2957:2961   */\n      0x20\n        /* \"#utility.yul\":2949:2955   */\n      dup7\n        /* \"#utility.yul\":2945:2962   */\n      add\n        /* \"#utility.yul\":2897:2976   */\n      tag_57\n      jump\t// in\n    tag_115:\n        /* \"#utility.yul\":2888:2976   */\n      swap2\n      pop\n        /* \"#utility.yul\":2704:2982   */\n      pop\n        /* \"#utility.yul\":2642:2982   */\n      swap3\n      swap2\n      pop\n      pop\n      jump\t// out\n        /* \"#utility.yul\":2988:3110   */\n    tag_59:\n        /* \"#utility.yul\":3061:3085   */\n      tag_117\n        /* \"#utility.yul\":3079:3084   */\n      dup2\n        /* \"#utility.yul\":3061:3085   */\n      tag_44\n      jump\t// in\n    tag_117:\n        /* \"#utility.yul\":3054:3059   */\n      dup2\n        /* \"#utility.yul\":3051:3086   */\n      eq\n        /* \"#utility.yul\":3041:3104   */\n      tag_118\n      jumpi\n        /* \"#utility.yul\":3100:3101   */\n      0x00\n        /* \"#utility.yul\":3097:3098   */\n      dup1\n        /* \"#utility.yul\":3090:3102   */\n      revert\n        /* \"#utility.yul\":3041:3104   */\n    tag_118:\n        /* \"#utility.yul\":2988:3110   */\n      pop\n      jump\t// out\n        /* \"#utility.yul\":3116:3255   */\n    tag_60:\n        /* \"#utility.yul\":3162:3167   */\n      0x00\n        /* \"#utility.yul\":3200:3206   */\n      dup2\n        /* \"#utility.yul\":3187:3207   */\n      calldataload\n        /* \"#utility.yul\":3178:3207   */\n      swap1\n      pop\n        /* \"#utility.yul\":3216:3249   */\n      tag_120\n        /* \"#utility.yul\":3243:3248   */\n      dup2\n        /* \"#utility.yul\":3216:3249   */\n      tag_59\n      jump\t// in\n    tag_120:\n        /* \"#utility.yul\":3116:3255   */\n      swap3\n      swap2\n      pop\n      pop\n      jump\t// out\n        /* \"#utility.yul\":3261:4566   */\n    tag_12:\n        /* \"#utility.yul\":3377:3383   */\n      0x00\n        /* \"#utility.yul\":3385:3391   */\n      dup1\n        /* \"#utility.yul\":3393:3399   */\n      0x00\n        /* \"#utility.yul\":3401:3407   */\n      dup1\n        /* \"#utility.yul\":3450:3453   */\n      0x80\n        /* \"#utility.yul\":3438:3447   */\n      dup6\n        /* \"#utility.yul\":3429:3436   */\n      dup8\n        /* \"#utility.yul\":3425:3448   */\n      sub\n        /* \"#utility.yul\":3421:3454   */\n      slt\n        /* \"#utility.yul\":3418:3538   */\n      iszero\n      tag_122\n      jumpi\n        /* \"#utility.yul\":3457:3536   */\n      tag_123\n      tag_47\n      jump\t// in\n    tag_123:\n        /* \"#utility.yul\":3418:3538   */\n    tag_122:\n        /* \"#utility.yul\":3605:3606   */\n      0x00\n        /* \"#utility.yul\":3594:3603   */\n      dup6\n        /* \"#utility.yul\":3590:3607   */\n      add\n        /* \"#utility.yul\":3577:3608   */\n      calldataload\n        /* \"#utility.yul\":3635:3653   */\n      0xffffffffffffffff\n        /* \"#utility.yul\":3627:3633   */\n      dup2\n        /* \"#utility.yul\":3624:3654   */\n      gt\n        /* \"#utility.yul\":3621:3738   */\n      iszero\n      tag_124\n      jumpi\n        /* \"#utility.yul\":3657:3736   */\n      tag_125\n      tag_48\n      jump\t// in\n    tag_125:\n        /* \"#utility.yul\":3621:3738   */\n    tag_124:\n        /* \"#utility.yul\":3762:3825   */\n      tag_126\n        /* \"#utility.yul\":3817:3824   */\n      dup8\n        /* \"#utility.yul\":3808:3814   */\n      dup3\n        /* \"#utility.yul\":3797:3806   */\n      dup9\n        /* \"#utility.yul\":3793:3815   */\n      add\n        /* \"#utility.yul\":3762:3825   */\n      tag_58\n      jump\t// in\n    tag_126:\n        /* \"#utility.yul\":3752:3825   */\n      swap5\n      pop\n        /* \"#utility.yul\":3548:3835   */\n      pop\n        /* \"#utility.yul\":3902:3904   */\n      0x20\n        /* \"#utility.yul\":3891:3900   */\n      dup6\n        /* \"#utility.yul\":3887:3905   */\n      add\n        /* \"#utility.yul\":3874:3906   */\n      calldataload\n        /* \"#utility.yul\":3933:3951   */\n      0xffffffffffffffff\n        /* \"#utility.yul\":3925:3931   */\n      dup2\n        /* \"#utility.yul\":3922:3952   */\n      gt\n        /* \"#utility.yul\":3919:4036   */\n      iszero\n      tag_127\n      jumpi\n        /* \"#utility.yul\":3955:4034   */\n      tag_128\n      tag_48\n      jump\t// in\n    tag_128:\n        /* \"#utility.yul\":3919:4036   */\n    tag_127:\n        /* \"#utility.yul\":4060:4123   */\n      tag_129\n        /* \"#utility.yul\":4115:4122   */\n      dup8\n        /* \"#utility.yul\":4106:4112   */\n      dup3\n        /* \"#utility.yul\":4095:4104   */\n      dup9\n        /* \"#utility.yul\":4091:4113   */\n      add\n        /* \"#utility.yul\":4060:4123   */\n      tag_58\n      jump\t// in\n    tag_129:\n        /* \"#utility.yul\":4050:4123   */\n      swap4\n      pop\n        /* \"#utility.yul\":3845:4133   */\n      pop\n        /* \"#utility.yul\":4172:4174   */\n      0x40\n        /* \"#utility.yul\":4198:4251   */\n      tag_130\n        /* \"#utility.yul\":4243:4250   */\n      dup8\n        /* \"#utility.yul\":4234:4240   */\n      dup3\n        /* \"#utility.yul\":4223:4232   */\n      dup9\n        /* \"#utility.yul\":4219:4241   */\n      add\n        /* \"#utility.yul\":4198:4251   */\n      tag_60\n      jump\t// in\n    tag_130:\n        /* \"#utility.yul\":4188:4251   */\n      swap3\n      pop\n        /* \"#utility.yul\":4143:4261   */\n      pop\n        /* \"#utility.yul\":4328:4330   */\n      0x60\n        /* \"#utility.yul\":4317:4326   */\n      dup6\n        /* \"#utility.yul\":4313:4331   */\n      add\n        /* \"#utility.yul\":4300:4332   */\n      calldataload\n        /* \"#utility.yul\":4359:4377   */\n      0xffffffffffffffff\n        /* \"#utility.yul\":4351:4357   */\n      dup2\n        /* \"#utility.yul\":4348:4378   */\n      gt\n        /* \"#utility.yul\":4345:4462   */\n      iszero\n      tag_131\n      jumpi\n        /* \"#utility.yul\":4381:4460   */\n      tag_132\n      tag_48\n      jump\t// in\n    tag_132:\n        /* \"#utility.yul\":4345:4462   */\n    tag_131:\n        /* \"#utility.yul\":4486:4549   */\n      tag_133\n        /* \"#utility.yul\":4541:4548   */\n      dup8\n        /* \"#utility.yul\":4532:4538   */\n      dup3\n        /* \"#utility.yul\":4521:4530   */\n      dup9\n        /* \"#utility.yul\":4517:4539   */\n      add\n        /* \"#utility.yul\":4486:4549   */\n      tag_58\n      jump\t// in\n    tag_133:\n        /* \"#utility.yul\":4476:4549   */\n      swap2\n      pop\n        /* \"#utility.yul\":4271:4559   */\n      pop\n        /* \"#utility.yul\":3261:4566   */\n      swap3\n      swap6\n      swap2\n      swap5\n      pop\n      swap3\n      pop\n      jump\t// out\n        /* \"#utility.yul\":4572:4901   */\n    tag_16:\n        /* \"#utility.yul\":4631:4637   */\n      0x00\n        /* \"#utility.yul\":4680:4682   */\n      0x20\n        /* \"#utility.yul\":4668:4677   */\n      dup3\n        /* \"#utility.yul\":4659:4666   */\n      dup5\n        /* \"#utility.yul\":4655:4678   */\n      sub\n        /* \"#utility.yul\":4651:4683   */\n      slt\n        /* \"#utility.yul\":4648:4767   */\n      iszero\n      tag_135\n      jumpi\n        /* \"#utility.yul\":4686:4765   */\n      tag_136\n      tag_47\n      jump\t// in\n    tag_136:\n        /* \"#utility.yul\":4648:4767   */\n    tag_135:\n        /* \"#utility.yul\":4806:4807   */\n      0x00\n        /* \"#utility.yul\":4831:4884   */\n      tag_137\n        /* \"#utility.yul\":4876:4883   */\n      dup5\n        /* \"#utility.yul\":4867:4873   */\n      dup3\n        /* \"#utility.yul\":4856:4865   */\n      dup6\n        /* \"#utility.yul\":4852:4874   */\n      add\n        /* \"#utility.yul\":4831:4884   */\n      tag_60\n      jump\t// in\n    tag_137:\n        /* \"#utility.yul\":4821:4884   */\n      swap2\n      pop\n        /* \"#utility.yul\":4777:4894   */\n      pop\n        /* \"#utility.yul\":4572:4901   */\n      swap3\n      swap2\n      pop\n      pop\n      jump\t// out\n        /* \"#utility.yul\":4907:5006   */\n    tag_61:\n        /* \"#utility.yul\":4959:4965   */\n      0x00\n        /* \"#utility.yul\":4993:4998   */\n      dup2\n        /* \"#utility.yul\":4987:4999   */\n      mload\n        /* \"#utility.yul\":4977:4999   */\n      swap1\n      pop\n        /* \"#utility.yul\":4907:5006   */\n      swap2\n      swap1\n      pop\n      jump\t// out\n        /* \"#utility.yul\":5012:5181   */\n    tag_62:\n        /* \"#utility.yul\":5096:5107   */\n      0x00\n        /* \"#utility.yul\":5130:5136   */\n      dup3\n        /* \"#utility.yul\":5125:5128   */\n      dup3\n        /* \"#utility.yul\":5118:5137   */\n      mstore\n        /* \"#utility.yul\":5170:5174   */\n      0x20\n        /* \"#utility.yul\":5165:5168   */\n      dup3\n        /* \"#utility.yul\":5161:5175   */\n      add\n        /* \"#utility.yul\":5146:5175   */\n      swap1\n      pop\n        /* \"#utility.yul\":5012:5181   */\n      swap3\n      swap2\n      pop\n      pop\n      jump\t// out\n        /* \"#utility.yul\":5187:5433   */\n    tag_63:\n        /* \"#utility.yul\":5268:5269   */\n      0x00\n        /* \"#utility.yul\":5278:5391   */\n    tag_141:\n        /* \"#utility.yul\":5292:5298   */\n      dup4\n        /* \"#utility.yul\":5289:5290   */\n      dup2\n        /* \"#utility.yul\":5286:5299   */\n      lt\n        /* \"#utility.yul\":5278:5391   */\n      iszero\n      tag_143\n      jumpi\n        /* \"#utility.yul\":5377:5378   */\n      dup1\n        /* \"#utility.yul\":5372:5375   */\n      dup3\n        /* \"#utility.yul\":5368:5379   */\n      add\n        /* \"#utility.yul\":5362:5380   */\n      mload\n        /* \"#utility.yul\":5358:5359   */\n      dup2\n        /* \"#utility.yul\":5353:5356   */\n      dup5\n        /* \"#utility.yul\":5349:5360   */\n      add\n        /* \"#utility.yul\":5342:5381   */\n      mstore\n        /* \"#utility.yul\":5314:5316   */\n      0x20\n        /* \"#utility.yul\":5311:5312   */\n      dup2\n        /* \"#utility.yul\":5307:5317   */\n      add\n        /* \"#utility.yul\":5302:5317   */\n      swap1\n      pop\n        /* \"#utility.yul\":5278:5391   */\n      jump(tag_141)\n    tag_143:\n        /* \"#utility.yul\":5425:5426   */\n      0x00\n        /* \"#utility.yul\":5416:5422   */\n      dup5\n        /* \"#utility.yul\":5411:5414   */\n      dup5\n        /* \"#utility.yul\":5407:5423   */\n      add\n        /* \"#utility.yul\":5400:5427   */\n      mstore\n        /* \"#utility.yul\":5249:5433   */\n      pop\n        /* \"#utility.yul\":5187:5433   */\n      pop\n      pop\n      pop\n      jump\t// out\n        /* \"#utility.yul\":5439:5816   */\n    tag_64:\n        /* \"#utility.yul\":5527:5530   */\n      0x00\n        /* \"#utility.yul\":5555:5594   */\n      tag_145\n        /* \"#utility.yul\":5588:5593   */\n      dup3\n        /* \"#utility.yul\":5555:5594   */\n      tag_61\n      jump\t// in\n    tag_145:\n        /* \"#utility.yul\":5610:5681   */\n      tag_146\n        /* \"#utility.yul\":5674:5680   */\n      dup2\n        /* \"#utility.yul\":5669:5672   */\n      dup6\n        /* \"#utility.yul\":5610:5681   */\n      tag_62\n      jump\t// in\n    tag_146:\n        /* \"#utility.yul\":5603:5681   */\n      swap4\n      pop\n        /* \"#utility.yul\":5690:5755   */\n      tag_147\n        /* \"#utility.yul\":5748:5754   */\n      dup2\n        /* \"#utility.yul\":5743:5746   */\n      dup6\n        /* \"#utility.yul\":5736:5740   */\n      0x20\n        /* \"#utility.yul\":5729:5734   */\n      dup7\n        /* \"#utility.yul\":5725:5741   */\n      add\n        /* \"#utility.yul\":5690:5755   */\n      tag_63\n      jump\t// in\n    tag_147:\n        /* \"#utility.yul\":5780:5809   */\n      tag_148\n        /* \"#utility.yul\":5802:5808   */\n      dup2\n        /* \"#utility.yul\":5780:5809   */\n      tag_51\n      jump\t// in\n    tag_148:\n        /* \"#utility.yul\":5775:5778   */\n      dup5\n        /* \"#utility.yul\":5771:5810   */\n      add\n        /* \"#utility.yul\":5764:5810   */\n      swap2\n      pop\n        /* \"#utility.yul\":5531:5816   */\n      pop\n        /* \"#utility.yul\":5439:5816   */\n      swap3\n      swap2\n      pop\n      pop\n      jump\t// out\n        /* \"#utility.yul\":5822:6648   */\n    tag_19:\n        /* \"#utility.yul\":6059:6063   */\n      0x00\n        /* \"#utility.yul\":6097:6100   */\n      0x80\n        /* \"#utility.yul\":6086:6095   */\n      dup3\n        /* \"#utility.yul\":6082:6101   */\n      add\n        /* \"#utility.yul\":6074:6101   */\n      swap1\n      pop\n        /* \"#utility.yul\":6147:6156   */\n      dup2\n        /* \"#utility.yul\":6141:6145   */\n      dup2\n        /* \"#utility.yul\":6137:6157   */\n      sub\n        /* \"#utility.yul\":6133:6134   */\n      0x00\n        /* \"#utility.yul\":6122:6131   */\n      dup4\n        /* \"#utility.yul\":6118:6135   */\n      add\n        /* \"#utility.yul\":6111:6158   */\n      mstore\n        /* \"#utility.yul\":6175:6253   */\n      tag_150\n        /* \"#utility.yul\":6248:6252   */\n      dup2\n        /* \"#utility.yul\":6239:6245   */\n      dup8\n        /* \"#utility.yul\":6175:6253   */\n      tag_64\n      jump\t// in\n    tag_150:\n        /* \"#utility.yul\":6167:6253   */\n      swap1\n      pop\n        /* \"#utility.yul\":6300:6309   */\n      dup2\n        /* \"#utility.yul\":6294:6298   */\n      dup2\n        /* \"#utility.yul\":6290:6310   */\n      sub\n        /* \"#utility.yul\":6285:6287   */\n      0x20\n        /* \"#utility.yul\":6274:6283   */\n      dup4\n        /* \"#utility.yul\":6270:6288   */\n      add\n        /* \"#utility.yul\":6263:6311   */\n      mstore\n        /* \"#utility.yul\":6328:6406   */\n      tag_151\n        /* \"#utility.yul\":6401:6405   */\n      dup2\n        /* \"#utility.yul\":6392:6398   */\n      dup7\n        /* \"#utility.yul\":6328:6406   */\n      tag_64\n      jump\t// in\n    tag_151:\n        /* \"#utility.yul\":6320:6406   */\n      swap1\n      pop\n        /* \"#utility.yul\":6416:6488   */\n      tag_152\n        /* \"#utility.yul\":6484:6486   */\n      0x40\n        /* \"#utility.yul\":6473:6482   */\n      dup4\n        /* \"#utility.yul\":6469:6487   */\n      add\n        /* \"#utility.yul\":6460:6466   */\n      dup6\n        /* \"#utility.yul\":6416:6488   */\n      tag_45\n      jump\t// in\n    tag_152:\n        /* \"#utility.yul\":6535:6544   */\n      dup2\n        /* \"#utility.yul\":6529:6533   */\n      dup2\n        /* \"#utility.yul\":6525:6545   */\n      sub\n        /* \"#utility.yul\":6520:6522   */\n      0x60\n        /* \"#utility.yul\":6509:6518   */\n      dup4\n        /* \"#utility.yul\":6505:6523   */\n      add\n        /* \"#utility.yul\":6498:6546   */\n      mstore\n        /* \"#utility.yul\":6563:6641   */\n      tag_153\n        /* \"#utility.yul\":6636:6640   */\n      dup2\n        /* \"#utility.yul\":6627:6633   */\n      dup5\n        /* \"#utility.yul\":6563:6641   */\n      tag_64\n      jump\t// in\n    tag_153:\n        /* \"#utility.yul\":6555:6641   */\n      swap1\n      pop\n        /* \"#utility.yul\":5822:6648   */\n      swap6\n      swap5\n      pop\n      pop\n      pop\n      pop\n      pop\n      jump\t// out\n        /* \"#utility.yul\":6654:6834   */\n    tag_65:\n        /* \"#utility.yul\":6702:6779   */\n      0x4e487b7100000000000000000000000000000000000000000000000000000000\n        /* \"#utility.yul\":6699:6700   */\n      0x00\n        /* \"#utility.yul\":6692:6780   */\n      mstore\n        /* \"#utility.yul\":6799:6803   */\n      0x22\n        /* \"#utility.yul\":6796:6797   */\n      0x04\n        /* \"#utility.yul\":6789:6804   */\n      mstore\n        /* \"#utility.yul\":6823:6827   */\n      0x24\n        /* \"#utility.yul\":6820:6821   */\n      0x00\n        /* \"#utility.yul\":6813:6828   */\n      revert\n        /* \"#utility.yul\":6840:7160   */\n    tag_29:\n        /* \"#utility.yul\":6884:6890   */\n      0x00\n        /* \"#utility.yul\":6921:6922   */\n      0x02\n        /* \"#utility.yul\":6915:6919   */\n      dup3\n        /* \"#utility.yul\":6911:6923   */\n      div\n        /* \"#utility.yul\":6901:6923   */\n      swap1\n      pop\n        /* \"#utility.yul\":6968:6969   */\n      0x01\n        /* \"#utility.yul\":6962:6966   */\n      dup3\n        /* \"#utility.yul\":6958:6970   */\n      and\n        /* \"#utility.yul\":6989:7007   */\n      dup1\n        /* \"#utility.yul\":6979:7060   */\n      tag_156\n      jumpi\n        /* \"#utility.yul\":7045:7049   */\n      0x7f\n        /* \"#utility.yul\":7037:7043   */\n      dup3\n        /* \"#utility.yul\":7033:7050   */\n      and\n        /* \"#utility.yul\":7023:7050   */\n      swap2\n      pop\n        /* \"#utility.yul\":6979:7060   */\n    tag_156:\n        /* \"#utility.yul\":7107:7109   */\n      0x20\n        /* \"#utility.yul\":7099:7105   */\n      dup3\n        /* \"#utility.yul\":7096:7110   */\n      lt\n        /* \"#utility.yul\":7076:7094   */\n      dup2\n        /* \"#utility.yul\":7073:7111   */\n      sub\n        /* \"#utility.yul\":7070:7154   */\n      tag_157\n      jumpi\n        /* \"#utility.yul\":7126:7144   */\n      tag_158\n      tag_65\n      jump\t// in\n    tag_158:\n        /* \"#utility.yul\":7070:7154   */\n    tag_157:\n        /* \"#utility.yul\":6891:7160   */\n      pop\n        /* \"#utility.yul\":6840:7160   */\n      swap2\n      swap1\n      pop\n      jump\t// out\n        /* \"#utility.yul\":7166:7307   */\n    tag_66:\n        /* \"#utility.yul\":7215:7219   */\n      0x00\n        /* \"#utility.yul\":7238:7241   */\n      dup2\n        /* \"#utility.yul\":7230:7241   */\n      swap1\n      pop\n        /* \"#utility.yul\":7261:7264   */\n      dup2\n        /* \"#utility.yul\":7258:7259   */\n      0x00\n        /* \"#utility.yul\":7251:7265   */\n      mstore\n        /* \"#utility.yul\":7295:7299   */\n      0x20\n        /* \"#utility.yul\":7292:7293   */\n      0x00\n        /* \"#utility.yul\":7282:7300   */\n      keccak256\n        /* \"#utility.yul\":7274:7300   */\n      swap1\n      pop\n        /* \"#utility.yul\":7166:7307   */\n      swap2\n      swap1\n      pop\n      jump\t// out\n        /* \"#utility.yul\":7313:7406   */\n    tag_67:\n        /* \"#utility.yul\":7350:7356   */\n      0x00\n        /* \"#utility.yul\":7397:7399   */\n      0x20\n        /* \"#utility.yul\":7392:7394   */\n      0x1f\n        /* \"#utility.yul\":7385:7390   */\n      dup4\n        /* \"#utility.yul\":7381:7395   */\n      add\n        /* \"#utility.yul\":7377:7400   */\n      div\n        /* \"#utility.yul\":7367:7400   */\n      swap1\n      pop\n        /* \"#utility.yul\":7313:7406   */\n      swap2\n      swap1\n      pop\n      jump\t// out\n        /* \"#utility.yul\":7412:7519   */\n    tag_68:\n        /* \"#utility.yul\":7456:7464   */\n      0x00\n        /* \"#utility.yul\":7506:7511   */\n      dup3\n        /* \"#utility.yul\":7500:7504   */\n      dup3\n        /* \"#utility.yul\":7496:7512   */\n      shl\n        /* \"#utility.yul\":7475:7512   */\n      swap1\n      pop\n        /* \"#utility.yul\":7412:7519   */\n      swap3\n      swap2\n      pop\n      pop\n      jump\t// out\n        /* \"#utility.yul\":7525:7918   */\n    tag_69:\n        /* \"#utility.yul\":7594:7600   */\n      0x00\n        /* \"#utility.yul\":7644:7645   */\n      0x08\n        /* \"#utility.yul\":7632:7642   */\n      dup4\n        /* \"#utility.yul\":7628:7646   */\n      mul\n        /* \"#utility.yul\":7667:7764   */\n      tag_163\n        /* \"#utility.yul\":7697:7763   */\n      0xffffffffffffffffffffffffffffffffffffffffffffffffffffffffffffffff\n        /* \"#utility.yul\":7686:7695   */\n      dup3\n        /* \"#utility.yul\":7667:7764   */\n      tag_68\n      jump\t// in\n    tag_163:\n        /* \"#utility.yul\":7785:7824   */\n      tag_164\n        /* \"#utility.yul\":7815:7823   */\n      dup7\n        /* \"#utility.yul\":7804:7813   */\n      dup4\n        /* \"#utility.yul\":7785:7824   */\n      tag_68\n      jump\t// in\n    tag_164:\n        /* \"#utility.yul\":7773:7824   */\n      swap6\n      pop\n        /* \"#utility.yul\":7857:7861   */\n      dup1\n        /* \"#utility.yul\":7853:7862   */\n      not\n        /* \"#utility.yul\":7846:7851   */\n      dup5\n        /* \"#utility.yul\":7842:7863   */\n      and\n        /* \"#utility.yul\":7833:7863   */\n      swap4\n      pop\n        /* \"#utility.yul\":7906:7910   */\n      dup1\n        /* \"#utility.yul\":7896:7904   */\n      dup7\n        /* \"#utility.yul\":7892:7911   */\n      and\n        /* \"#utility.yul\":7885:7890   */\n      dup5\n        /* \"#utility.yul\":7882:7912   */\n      or\n        /* \"#utility.yul\":7872:7912   */\n      swap3\n      pop\n        /* \"#utility.yul\":7601:7918   */\n      pop\n      pop\n        /* \"#utility.yul\":7525:7918   */\n      swap4\n      swap3\n      pop\n      pop\n      pop\n      jump\t// out\n        /* \"#utility.yul\":7924:7984   */\n    tag_70:\n        /* \"#utility.yul\":7952:7955   */\n      0x00\n        /* \"#utility.yul\":7973:7978   */\n      dup2\n        /* \"#utility.yul\":7966:7978   */\n      swap1\n      pop\n        /* \"#utility.yul\":7924:7984   */\n      swap2\n      swap1\n      pop\n      jump\t// out\n        /* \"#utility.yul\":7990:8132   */\n    tag_71:\n        /* \"#utility.yul\":8040:8049   */\n      0x00\n        /* \"#utility.yul\":8073:8126   */\n      tag_167\n        /* \"#utility.yul\":8091:8125   */\n      tag_168\n        /* \"#utility.yul\":8100:8124   */\n      tag_169\n        /* \"#utility.yul\":8118:8123   */\n      dup5\n        /* \"#utility.yul\":8100:8124   */\n      tag_44\n      jump\t// in\n    tag_169:\n        /* \"#utility.yul\":8091:8125   */\n      tag_70\n      jump\t// in\n    tag_168:\n        /* \"#utility.yul\":8073:8126   */\n      tag_44\n      jump\t// in\n    tag_167:\n        /* \"#utility.yul\":8060:8126   */\n      swap1\n      pop\n        /* \"#utility.yul\":7990:8132   */\n      swap2\n      swap1\n      pop\n      jump\t// out\n        /* \"#utility.yul\":8138:8213   */\n    tag_72:\n        /* \"#utility.yul\":8181:8184   */\n      0x00\n        /* \"#utility.yul\":8202:8207   */\n      dup2\n        /* \"#utility.yul\":8195:8207   */\n      swap1\n      pop\n        /* \"#utility.yul\":8138:8213   */\n      swap2\n      swap1\n      pop\n      jump\t// out\n        /* \"#utility.yul\":8219:8488   */\n    tag_73:\n        /* \"#utility.yul\":8329:8368   */\n      tag_172\n        /* \"#utility.yul\":8360:8367   */\n      dup4\n        /* \"#utility.yul\":8329:8368   */\n      tag_71\n      jump\t// in\n    tag_172:\n        /* \"#utility.yul\":8390:8481   */\n      tag_173\n        /* \"#utility.yul\":8439:8480   */\n      tag_174\n        /* \"#utility.yul\":8463:8479   */\n      dup3\n        /* \"#utility.yul\":8439:8480   */\n      tag_72\n      jump\t// in\n    tag_174:\n        /* \"#utility.yul\":8431:8437   */\n      dup5\n        /* \"#utility.yul\":8424:8428   */\n      dup5\n        /* \"#utility.yul\":8418:8429   */\n      sload\n        /* \"#utility.yul\":8390:8481   */\n      tag_69\n      jump\t// in\n    tag_173:\n        /* \"#utility.yul\":8384:8388   */\n      dup3\n        /* \"#utility.yul\":8377:8482   */\n      sstore\n        /* \"#utility.yul\":8295:8488   */\n      pop\n        /* \"#utility.yul\":8219:8488   */\n      pop\n      pop\n      pop\n      jump\t// out\n        /* \"#utility.yul\":8494:8567   */\n    tag_74:\n        /* \"#utility.yul\":8539:8542   */\n      0x00\n        /* \"#utility.yul\":8494:8567   */\n      swap1\n      jump\t// out\n        /* \"#utility.yul\":8573:8762   */\n    tag_75:\n        /* \"#utility.yul\":8650:8682   */\n      tag_177\n      tag_74\n      jump\t// in\n    tag_177:\n        /* \"#utility.yul\":8691:8756   */\n      tag_178\n        /* \"#utility.yul\":8749:8755   */\n      dup2\n        /* \"#utility.yul\":8741:8747   */\n      dup5\n        /* \"#utility.yul\":8735:8739   */\n      dup5\n        /* \"#utility.yul\":8691:8756   */\n      tag_73\n      jump\t// in\n    tag_178:\n        /* \"#utility.yul\":8626:8762   */\n      pop\n        /* \"#utility.yul\":8573:8762   */\n      pop\n      pop\n      jump\t// out\n        /* \"#utility.yul\":8768:8954   */\n    tag_76:\n        /* \"#utility.yul\":8828:8948   */\n    tag_180:\n        /* \"#utility.yul\":8845:8848   */\n      dup2\n        /* \"#utility.yul\":8838:8843   */\n      dup2\n        /* \"#utility.yul\":8835:8849   */\n      lt\n        /* \"#utility.yul\":8828:8948   */\n      iszero\n      tag_182\n      jumpi\n        /* \"#utility.yul\":8899:8938   */\n      tag_183\n        /* \"#utility.yul\":8936:8937   */\n      0x00\n        /* \"#utility.yul\":8929:8934   */\n      dup3\n        /* \"#utility.yul\":8899:8938   */\n      tag_75\n      jump\t// in\n    tag_183:\n        /* \"#utility.yul\":8872:8873   */\n      0x01\n        /* \"#utility.yul\":8865:8870   */\n      dup2\n        /* \"#utility.yul\":8861:8874   */\n      add\n        /* \"#utility.yul\":8852:8874   */\n      swap1\n      pop\n        /* \"#utility.yul\":8828:8948   */\n      jump(tag_180)\n    tag_182:\n        /* \"#utility.yul\":8768:8954   */\n      pop\n      pop\n      jump\t// out\n        /* \"#utility.yul\":8960:9503   */\n    tag_77:\n        /* \"#utility.yul\":9061:9063   */\n      0x1f\n        /* \"#utility.yul\":9056:9059   */\n      dup3\n        /* \"#utility.yul\":9053:9064   */\n      gt\n        /* \"#utility.yul\":9050:9496   */\n      iszero\n      tag_185\n      jumpi\n        /* \"#utility.yul\":9095:9133   */\n      tag_186\n        /* \"#utility.yul\":9127:9132   */\n      dup2\n        /* \"#utility.yul\":9095:9133   */\n      tag_66\n      jump\t// in\n    tag_186:\n        /* \"#utility.yul\":9179:9208   */\n      tag_187\n        /* \"#utility.yul\":9197:9207   */\n      dup5\n        /* \"#utility.yul\":9179:9208   */\n      tag_67\n      jump\t// in\n    tag_187:\n        /* \"#utility.yul\":9169:9177   */\n      dup2\n        /* \"#utility.yul\":9165:9209   */\n      add\n        /* \"#utility.yul\":9362:9364   */\n      0x20\n        /* \"#utility.yul\":9350:9360   */\n      dup6\n        /* \"#utility.yul\":9347:9365   */\n      lt\n        /* \"#utility.yul\":9344:9393   */\n      iszero\n      tag_188\n      jumpi\n        /* \"#utility.yul\":9383:9391   */\n      dup2\n        /* \"#utility.yul\":9368:9391   */\n      swap1\n      pop\n        /* \"#utility.yul\":9344:9393   */\n    tag_188:\n        /* \"#utility.yul\":9406:9486   */\n      tag_189\n        /* \"#utility.yul\":9462:9484   */\n      tag_190\n        /* \"#utility.yul\":9480:9483   */\n      dup6\n        /* \"#utility.yul\":9462:9484   */\n      tag_67\n      jump\t// in\n    tag_190:\n        /* \"#utility.yul\":9452:9460   */\n      dup4\n        /* \"#utility.yul\":9448:9485   */\n      add\n        /* \"#utility.yul\":9435:9446   */\n      dup3\n        /* \"#utility.yul\":9406:9486   */\n      tag_76\n      jump\t// in\n    tag_189:\n        /* \"#utility.yul\":9065:9496   */\n      pop\n      pop\n        /* \"#utility.yul\":9050:9496   */\n    tag_185:\n        /* \"#utility.yul\":8960:9503   */\n      pop\n      pop\n      pop\n      jump\t// out\n        /* \"#utility.yul\":9509:9626   */\n    tag_78:\n        /* \"#utility.yul\":9563:9571   */\n      0x00\n        /* \"#utility.yul\":9613:9618   */\n      dup3\n        /* \"#utility.yul\":9607:9611   */\n      dup3\n        /* \"#utility.yul\":9603:9619   */\n      shr\n        /* \"#utility.yul\":9582:9619   */\n      swap1\n      pop\n        /* \"#utility.yul\":9509:9626   */\n      swap3\n      swap2\n      pop\n      pop\n      jump\t// out\n        /* \"#utility.yul\":9632:9801   */\n    tag_79:\n        /* \"#utility.yul\":9676:9682   */\n      0x00\n        /* \"#utility.yul\":9709:9760   */\n      tag_193\n        /* \"#utility.yul\":9757:9758   */\n      0x00\n        /* \"#utility.yul\":9753:9759   */\n      not\n        /* \"#utility.yul\":9745:9750   */\n      dup5\n        /* \"#utility.yul\":9742:9743   */\n      0x08\n        /* \"#utility.yul\":9738:9751   */\n      mul\n        /* \"#utility.yul\":9709:9760   */\n      tag_78\n      jump\t// in\n    tag_193:\n        /* \"#utility.yul\":9705:9761   */\n      not\n        /* \"#utility.yul\":9790:9794   */\n      dup1\n        /* \"#utility.yul\":9784:9788   */\n      dup4\n        /* \"#utility.yul\":9780:9795   */\n      and\n        /* \"#utility.yul\":9770:9795   */\n      swap2\n      pop\n        /* \"#utility.yul\":9683:9801   */\n      pop\n        /* \"#utility.yul\":9632:9801   */\n      swap3\n      swap2\n      pop\n      pop\n      jump\t// out\n        /* \"#utility.yul\":9806:10101   */\n    tag_80:\n        /* \"#utility.yul\":9882:9886   */\n      0x00\n        /* \"#utility.yul\":10028:10057   */\n      tag_195\n        /* \"#utility.yul\":10053:10056   */\n      dup4\n        /* \"#utility.yul\":10047:10051   */\n      dup4\n        /* \"#utility.yul\":10028:10057   */\n      tag_79\n      jump\t// in\n    tag_195:\n        /* \"#utility.yul\":10020:10057   */\n      swap2\n      pop\n        /* \"#utility.yul\":10090:10093   */\n      dup3\n        /* \"#utility.yul\":10087:10088   */\n      0x02\n        /* \"#utility.yul\":10083:10094   */\n      mul\n        /* \"#utility.yul\":10077:10081   */\n      dup3\n        /* \"#utility.yul\":10074:10095   */\n      or\n        /* \"#utility.yul\":10066:10095   */\n      swap1\n      pop\n        /* \"#utility.yul\":9806:10101   */\n      swap3\n      swap2\n      pop\n      pop\n      jump\t// out\n        /* \"#utility.yul\":10106:11501   */\n    tag_23:\n        /* \"#utility.yul\":10223:10260   */\n      tag_197\n        /* \"#utility.yul\":10256:10259   */\n      dup3\n        /* \"#utility.yul\":10223:10260   */\n      tag_61\n      jump\t// in\n    tag_197:\n        /* \"#utility.yul\":10325:10343   */\n      0xffffffffffffffff\n        /* \"#utility.yul\":10317:10323   */\n      dup2\n        /* \"#utility.yul\":10314:10344   */\n      gt\n        /* \"#utility.yul\":10311:10367   */\n      iszero\n      tag_198\n      jumpi\n        /* \"#utility.yul\":10347:10365   */\n      tag_199\n      tag_52\n      jump\t// in\n    tag_199:\n        /* \"#utility.yul\":10311:10367   */\n    tag_198:\n        /* \"#utility.yul\":10391:10429   */\n      tag_200\n        /* \"#utility.yul\":10423:10427   */\n      dup3\n        /* \"#utility.yul\":10417:10428   */\n      sload\n        /* \"#utility.yul\":10391:10429   */\n      tag_29\n      jump\t// in\n    tag_200:\n        /* \"#utility.yul\":10476:10543   */\n      tag_201\n        /* \"#utility.yul\":10536:10542   */\n      dup3\n        /* \"#utility.yul\":10528:10534   */\n      dup3\n        /* \"#utility.yul\":10522:10526   */\n      dup6\n        /* \"#utility.yul\":10476:10543   */\n      tag_77\n      jump\t// in\n    tag_201:\n        /* \"#utility.yul\":10570:10571   */\n      0x00\n        /* \"#utility.yul\":10594:10598   */\n      0x20\n        /* \"#utility.yul\":10581:10598   */\n      swap1\n      pop\n        /* \"#utility.yul\":10626:10628   */\n      0x1f\n        /* \"#utility.yul\":10618:10624   */\n      dup4\n        /* \"#utility.yul\":10615:10629   */\n      gt\n        /* \"#utility.yul\":10643:10644   */\n      0x01\n        /* \"#utility.yul\":10638:11256   */\n      dup2\n      eq\n      tag_203\n      jumpi\n        /* \"#utility.yul\":11300:11301   */\n      0x00\n        /* \"#utility.yul\":11317:11323   */\n      dup5\n        /* \"#utility.yul\":11314:11391   */\n      iszero\n      tag_204\n      jumpi\n        /* \"#utility.yul\":11366:11375   */\n      dup3\n        /* \"#utility.yul\":11361:11364   */\n      dup8\n        /* \"#utility.yul\":11357:11376   */\n      add\n        /* \"#utility.yul\":11351:11377   */\n      mload\n        /* \"#utility.yul\":11342:11377   */\n      swap1\n      pop\n        /* \"#utility.yul\":11314:11391   */\n    tag_204:\n        /* \"#utility.yul\":11417:11484   */\n      tag_205\n        /* \"#utility.yul\":11477:11483   */\n      dup6\n        /* \"#utility.yul\":11470:11475   */\n      dup3\n        /* \"#utility.yul\":11417:11484   */\n      tag_80\n      jump\t// in\n    tag_205:\n        /* \"#utility.yul\":11411:11415   */\n      dup7\n        /* \"#utility.yul\":11404:11485   */\n      sstore\n        /* \"#utility.yul\":11273:11495   */\n      pop\n        /* \"#utility.yul\":10608:11495   */\n      jump(tag_202)\n        /* \"#utility.yul\":10638:11256   */\n    tag_203:\n        /* \"#utility.yul\":10690:10694   */\n      0x1f\n        /* \"#utility.yul\":10686:10695   */\n      not\n        /* \"#utility.yul\":10678:10684   */\n      dup5\n        /* \"#utility.yul\":10674:10696   */\n      and\n        /* \"#utility.yul\":10724:10761   */\n      tag_206\n        /* \"#utility.yul\":10756:10760   */\n      dup7\n        /* \"#utility.yul\":10724:10761   */\n      tag_66\n      jump\t// in\n    tag_206:\n        /* \"#utility.yul\":10783:10784   */\n      0x00\n        /* \"#utility.yul\":10797:11005   */\n    tag_207:\n        /* \"#utility.yul\":10811:10818   */\n      dup3\n        /* \"#utility.yul\":10808:10809   */\n      dup2\n        /* \"#utility.yul\":10805:10819   */\n      lt\n        /* \"#utility.yul\":10797:11005   */\n      iszero\n      tag_209\n      jumpi\n        /* \"#utility.yul\":10890:10899   */\n      dup5\n        /* \"#utility.yul\":10885:10888   */\n      dup10\n        /* \"#utility.yul\":10881:10900   */\n      add\n        /* \"#utility.yul\":10875:10901   */\n      mload\n        /* \"#utility.yul\":10867:10873   */\n      dup3\n        /* \"#utility.yul\":10860:10902   */\n      sstore\n        /* \"#utility.yul\":10941:10942   */\n      0x01\n        /* \"#utility.yul\":10933:10939   */\n      dup3\n        /* \"#utility.yul\":10929:10943   */\n      add\n        /* \"#utility.yul\":10919:10943   */\n      swap2\n      pop\n        /* \"#utility.yul\":10988:10990   */\n      0x20\n        /* \"#utility.yul\":10977:10986   */\n      dup6\n        /* \"#utility.yul\":10973:10991   */\n      add\n        /* \"#utility.yul\":10960:10991   */\n      swap5\n      pop\n        /* \"#utility.yul\":10834:10838   */\n      0x20\n        /* \"#utility.yul\":10831:10832   */\n      dup2\n        /* \"#utility.yul\":10827:10839   */\n      add\n        /* \"#utility.yul\":10822:10839   */\n      swap1\n      pop\n        /* \"#utility.yul\":10797:11005   */\n      jump(tag_207)\n    tag_209:\n        /* \"#utility.yul\":11033:11039   */\n      dup7\n        /* \"#utility.yul\":11024:11031   */\n      dup4\n        /* \"#utility.yul\":11021:11040   */\n      lt\n        /* \"#utility.yul\":11018:11197   */\n      iszero\n      tag_210\n      jumpi\n        /* \"#utility.yul\":11091:11100   */\n      dup5\n        /* \"#utility.yul\":11086:11089   */\n      dup10\n        /* \"#utility.yul\":11082:11101   */\n      add\n        /* \"#utility.yul\":11076:11102   */\n      mload\n        /* \"#utility.yul\":11134:11182   */\n      tag_211\n        /* \"#utility.yul\":11176:11180   */\n      0x1f\n        /* \"#utility.yul\":11168:11174   */\n      dup10\n        /* \"#utility.yul\":11164:11181   */\n      and\n        /* \"#utility.yul\":11153:11162   */\n      dup3\n        /* \"#utility.yul\":11134:11182   */\n      tag_79\n      jump\t// in\n    tag_211:\n        /* \"#utility.yul\":11126:11132   */\n      dup4\n        /* \"#utility.yul\":11119:11183   */\n      sstore\n        /* \"#utility.yul\":11041:11197   */\n      pop\n        /* \"#utility.yul\":11018:11197   */\n    tag_210:\n        /* \"#utility.yul\":11243:11244   */\n      0x01\n        /* \"#utility.yul\":11239:11240   */\n      0x02\n        /* \"#utility.yul\":11231:11237   */\n      dup9\n        /* \"#utility.yul\":11227:11241   */\n      mul\n        /* \"#utility.yul\":11223:11245   */\n      add\n        /* \"#utility.yul\":11217:11221   */\n      dup9\n        /* \"#utility.yul\":11210:11246   */\n      sstore\n        /* \"#utility.yul\":10645:11256   */\n      pop\n      pop\n      pop\n        /* \"#utility.yul\":10608:11495   */\n    tag_202:\n      pop\n        /* \"#utility.yul\":10198:11501   */\n      pop\n      pop\n      pop\n        /* \"#utility.yul\":10106:11501   */\n      pop\n      pop\n      jump\t// out\n\n    auxdata: 0xa2646970667358221220aff13309e6b3c8531bd677639664f63e4c44720aa1710d5c1b7a12d6011a3d9b64736f6c63430008160033\n}\n",
				"bytecode": {
					"linkReferences": {},
					"object": "608060405260015f55348015610013575f80fd5b5061097e806100215f395ff3fe608060405234801561000f575f80fd5b506004361061003f575f3560e01c80638381f58a146100435780638481f46114610061578063f71d96cb1461007d575b5f80fd5b61004b6100b0565b604051610058919061033a565b60405180910390f35b61007b600480360381019061007691906104ca565b6100b5565b005b61009760048036038101906100929190610582565b610155565b6040516100a79493929190610627565b60405180910390f35b5f5481565b5f6040518060800160405280868152602001858152602001848152602001838152509050600181908060018154018082558091505060019003905f5260205f2090600402015f909190919091505f820151815f0190816101159190610879565b50602082015181600101908161012b9190610879565b5060408201518160020155606082015181600301908161014b9190610879565b5050505050505050565b60018181548110610164575f80fd5b905f5260205f2090600402015f91509050805f018054610183906106ac565b80601f01602080910402602001604051908101604052809291908181526020018280546101af906106ac565b80156101fa5780601f106101d1576101008083540402835291602001916101fa565b820191905f5260205f20905b8154815290600101906020018083116101dd57829003601f168201915b50505050509080600101805461020f906106ac565b80601f016020809104026020016040519081016040528092919081815260200182805461023b906106ac565b80156102865780601f1061025d57610100808354040283529160200191610286565b820191905f5260205f20905b81548152906001019060200180831161026957829003601f168201915b5050505050908060020154908060030180546102a1906106ac565b80601f01602080910402602001604051908101604052809291908181526020018280546102cd906106ac565b80156103185780601f106102ef57610100808354040283529160200191610318565b820191905f5260205f20905b8154815290600101906020018083116102fb57829003601f168201915b5050505050905084565b5f819050919050565b61033481610322565b82525050565b5f60208201905061034d5f83018461032b565b92915050565b5f604051905090565b5f80fd5b5f80fd5b5f80fd5b5f80fd5b5f601f19601f8301169050919050565b7f4e487b71000000000000000000000000000000000000000000000000000000005f52604160045260245ffd5b6103b28261036c565b810181811067ffffffffffffffff821117156103d1576103d061037c565b5b80604052505050565b5f6103e3610353565b90506103ef82826103a9565b919050565b5f67ffffffffffffffff82111561040e5761040d61037c565b5b6104178261036c565b9050602081019050919050565b828183375f83830152505050565b5f61044461043f846103f4565b6103da565b9050828152602081018484840111156104605761045f610368565b5b61046b848285610424565b509392505050565b5f82601f83011261048757610486610364565b5b8135610497848260208601610432565b91505092915050565b6104a981610322565b81146104b3575f80fd5b50565b5f813590506104c4816104a0565b92915050565b5f805f80608085870312156104e2576104e161035c565b5b5f85013567ffffffffffffffff8111156104ff576104fe610360565b5b61050b87828801610473565b945050602085013567ffffffffffffffff81111561052c5761052b610360565b5b61053887828801610473565b9350506040610549878288016104b6565b925050606085013567ffffffffffffffff81111561056a57610569610360565b5b61057687828801610473565b91505092959194509250565b5f602082840312156105975761059661035c565b5b5f6105a4848285016104b6565b91505092915050565b5f81519050919050565b5f82825260208201905092915050565b5f5b838110156105e45780820151818401526020810190506105c9565b5f8484015250505050565b5f6105f9826105ad565b61060381856105b7565b93506106138185602086016105c7565b61061c8161036c565b840191505092915050565b5f6080820190508181035f83015261063f81876105ef565b9050818103602083015261065381866105ef565b9050610662604083018561032b565b818103606083015261067481846105ef565b905095945050505050565b7f4e487b71000000000000000000000000000000000000000000000000000000005f52602260045260245ffd5b5f60028204905060018216806106c357607f821691505b6020821081036106d6576106d561067f565b5b50919050565b5f819050815f5260205f209050919050565b5f6020601f8301049050919050565b5f82821b905092915050565b5f600883026107387fffffffffffffffffffffffffffffffffffffffffffffffffffffffffffffffff826106fd565b61074286836106fd565b95508019841693508086168417925050509392505050565b5f819050919050565b5f61077d61077861077384610322565b61075a565b610322565b9050919050565b5f819050919050565b61079683610763565b6107aa6107a282610784565b848454610709565b825550505050565b5f90565b6107be6107b2565b6107c981848461078d565b505050565b5b818110156107ec576107e15f826107b6565b6001810190506107cf565b5050565b601f82111561083157610802816106dc565b61080b846106ee565b8101602085101561081a578190505b61082e610826856106ee565b8301826107ce565b50505b505050565b5f82821c905092915050565b5f6108515f1984600802610836565b1980831691505092915050565b5f6108698383610842565b9150826002028217905092915050565b610882826105ad565b67ffffffffffffffff81111561089b5761089a61037c565b5b6108a582546106ac565b6108b08282856107f0565b5f60209050601f8311600181146108e1575f84156108cf578287015190505b6108d9858261085e565b865550610940565b601f1984166108ef866106dc565b5f5b82811015610916578489015182556001820191506020850194506020810190506108f1565b86831015610933578489015161092f601f891682610842565b8355505b6001600288020188555050505b50505050505056fea2646970667358221220aff13309e6b3c8531bd677639664f63e4c44720aa1710d5c1b7a12d6011a3d9b64736f6c63430008160033",
					"opcodes": "PUSH1 0x80 PUSH1 0x40 MSTORE PUSH1 0x1 PUSH0 SSTORE CALLVALUE DUP1 ISZERO PUSH2 0x13 JUMPI PUSH0 DUP1 REVERT JUMPDEST POP PUSH2 0x97E DUP1 PUSH2 0x21 PUSH0 CODECOPY PUSH0 RETURN INVALID PUSH1 0x80 PUSH1 0x40 MSTORE CALLVALUE DUP1 ISZERO PUSH2 0xF JUMPI PUSH0 DUP1 REVERT JUMPDEST POP PUSH1 0x4 CALLDATASIZE LT PUSH2 0x3F JUMPI PUSH0 CALLDATALOAD PUSH1 0xE0 SHR DUP1 PUSH4 0x8381F58A EQ PUSH2 0x43 JUMPI DUP1 PUSH4 0x8481F461 EQ PUSH2 0x61 JUMPI DUP1 PUSH4 0xF71D96CB EQ PUSH2 0x7D JUMPI JUMPDEST PUSH0 DUP1 REVERT JUMPDEST PUSH2 0x4B PUSH2 0xB0 JUMP JUMPDEST PUSH1 0x40 MLOAD PUSH2 0x58 SWAP2 SWAP1 PUSH2 0x33A JUMP JUMPDEST PUSH1 0x40 MLOAD DUP1 SWAP2 SUB SWAP1 RETURN JUMPDEST PUSH2 0x7B PUSH1 0x4 DUP1 CALLDATASIZE SUB DUP2 ADD SWAP1 PUSH2 0x76 SWAP2 SWAP1 PUSH2 0x4CA JUMP JUMPDEST PUSH2 0xB5 JUMP JUMPDEST STOP JUMPDEST PUSH2 0x97 PUSH1 0x4 DUP1 CALLDATASIZE SUB DUP2 ADD SWAP1 PUSH2 0x92 SWAP2 SWAP1 PUSH2 0x582 JUMP JUMPDEST PUSH2 0x155 JUMP JUMPDEST PUSH1 0x40 MLOAD PUSH2 0xA7 SWAP5 SWAP4 SWAP3 SWAP2 SWAP1 PUSH2 0x627 JUMP JUMPDEST PUSH1 0x40 MLOAD DUP1 SWAP2 SUB SWAP1 RETURN JUMPDEST PUSH0 SLOAD DUP2 JUMP JUMPDEST PUSH0 PUSH1 0x40 MLOAD DUP1 PUSH1 0x80 ADD PUSH1 0x40 MSTORE DUP1 DUP7 DUP2 MSTORE PUSH1 0x20 ADD DUP6 DUP2 MSTORE PUSH1 0x20 ADD DUP5 DUP2 MSTORE PUSH1 0x20 ADD DUP4 DUP2 MSTORE POP SWAP1 POP PUSH1 0x1 DUP2 SWAP1 DUP1 PUSH1 0x1 DUP2 SLOAD ADD DUP1 DUP3 SSTORE DUP1 SWAP2 POP POP PUSH1 0x1 SWAP1 SUB SWAP1 PUSH0 MSTORE PUSH1 0x20 PUSH0 KECCAK256 SWAP1 PUSH1 0x4 MUL ADD PUSH0 SWAP1 SWAP2 SWAP1 SWAP2 SWAP1 SWAP2 POP PUSH0 DUP3 ADD MLOAD DUP2 PUSH0 ADD SWAP1 DUP2 PUSH2 0x115 SWAP2 SWAP1 PUSH2 0x879 JUMP JUMPDEST POP PUSH1 0x20 DUP3 ADD MLOAD DUP2 PUSH1 0x1 ADD SWAP1 DUP2 PUSH2 0x12B SWAP2 SWAP1 PUSH2 0x879 JUMP JUMPDEST POP PUSH1 0x40 DUP3 ADD MLOAD DUP2 PUSH1 0x2 ADD SSTORE PUSH1 0x60 DUP3 ADD MLOAD DUP2 PUSH1 0x3 ADD SWAP1 DUP2 PUSH2 0x14B SWAP2 SWAP1 PUSH2 0x879 JUMP JUMPDEST POP POP POP POP POP POP POP POP JUMP JUMPDEST PUSH1 0x1 DUP2 DUP2 SLOAD DUP2 LT PUSH2 0x164 JUMPI PUSH0 DUP1 REVERT JUMPDEST SWAP1 PUSH0 MSTORE PUSH1 0x20 PUSH0 KECCAK256 SWAP1 PUSH1 0x4 MUL ADD PUSH0 SWAP2 POP SWAP1 POP DUP1 PUSH0 ADD DUP1 SLOAD PUSH2 0x183 SWAP1 PUSH2 0x6AC JUMP JUMPDEST DUP1 PUSH1 0x1F ADD PUSH1 0x20 DUP1 SWAP2 DIV MUL PUSH1 0x20 ADD PUSH1 0x40 MLOAD SWAP1 DUP2 ADD PUSH1 0x40 MSTORE DUP1 SWAP3 SWAP2 SWAP1 DUP2 DUP2 MSTORE PUSH1 0x20 ADD DUP3 DUP1 SLOAD PUSH2 0x1AF SWAP1 PUSH2 0x6AC JUMP JUMPDEST DUP1 ISZERO PUSH2 0x1FA JUMPI DUP1 PUSH1 0x1F LT PUSH2 0x1D1 JUMPI PUSH2 0x100 DUP1 DUP4 SLOAD DIV MUL DUP4 MSTORE SWAP2 PUSH1 0x20 ADD SWAP2 PUSH2 0x1FA JUMP JUMPDEST DUP3 ADD SWAP2 SWAP1 PUSH0 MSTORE PUSH1 0x20 PUSH0 KECCAK256 SWAP1 JUMPDEST DUP2 SLOAD DUP2 MSTORE SWAP1 PUSH1 0x1 ADD SWAP1 PUSH1 0x20 ADD DUP1 DUP4 GT PUSH2 0x1DD JUMPI DUP3 SWAP1 SUB PUSH1 0x1F AND DUP3 ADD SWAP2 JUMPDEST POP POP POP POP POP SWAP1 DUP1 PUSH1 0x1 ADD DUP1 SLOAD PUSH2 0x20F SWAP1 PUSH2 0x6AC JUMP JUMPDEST DUP1 PUSH1 0x1F ADD PUSH1 0x20 DUP1 SWAP2 DIV MUL PUSH1 0x20 ADD PUSH1 0x40 MLOAD SWAP1 DUP2 ADD PUSH1 0x40 MSTORE DUP1 SWAP3 SWAP2 SWAP1 DUP2 DUP2 MSTORE PUSH1 0x20 ADD DUP3 DUP1 SLOAD PUSH2 0x23B SWAP1 PUSH2 0x6AC JUMP JUMPDEST DUP1 ISZERO PUSH2 0x286 JUMPI DUP1 PUSH1 0x1F LT PUSH2 0x25D JUMPI PUSH2 0x100 DUP1 DUP4 SLOAD DIV MUL DUP4 MSTORE SWAP2 PUSH1 0x20 ADD SWAP2 PUSH2 0x286 JUMP JUMPDEST DUP3 ADD SWAP2 SWAP1 PUSH0 MSTORE PUSH1 0x20 PUSH0 KECCAK256 SWAP1 JUMPDEST DUP2 SLOAD DUP2 MSTORE SWAP1 PUSH1 0x1 ADD SWAP1 PUSH1 0x20 ADD DUP1 DUP4 GT PUSH2 0x269 JUMPI DUP3 SWAP1 SUB PUSH1 0x1F AND DUP3 ADD SWAP2 JUMPDEST POP POP POP POP POP SWAP1 DUP1 PUSH1 0x2 ADD SLOAD SWAP1 DUP1 PUSH1 0x3 ADD DUP1 SLOAD PUSH2 0x2A1 SWAP1 PUSH2 0x6AC JUMP JUMPDEST DUP1 PUSH1 0x1F ADD PUSH1 0x20 DUP1 SWAP2 DIV MUL PUSH1 0x20 ADD PUSH1 0x40 MLOAD SWAP1 DUP2 ADD PUSH1 0x40 MSTORE DUP1 SWAP3 SWAP2 SWAP1 DUP2 DUP2 MSTORE PUSH1 0x20 ADD DUP3 DUP1 SLOAD PUSH2 0x2CD SWAP1 PUSH2 0x6AC JUMP JUMPDEST DUP1 ISZERO PUSH2 0x318 JUMPI DUP1 PUSH1 0x1F LT PUSH2 0x2EF JUMPI PUSH2 0x100 DUP1 DUP4 SLOAD DIV MUL DUP4 MSTORE SWAP2 PUSH1 0x20 ADD SWAP2 PUSH2 0x318 JUMP JUMPDEST DUP3 ADD SWAP2 SWAP1 PUSH0 MSTORE PUSH1 0x20 PUSH0 KECCAK256 SWAP1 JUMPDEST DUP2 SLOAD DUP2 MSTORE SWAP1 PUSH1 0x1 ADD SWAP1 PUSH1 0x20 ADD DUP1 DUP4 GT PUSH2 0x2FB JUMPI DUP3 SWAP1 SUB PUSH1 0x1F AND DUP3 ADD SWAP2 JUMPDEST POP POP POP POP POP SWAP1 POP DUP5 JUMP JUMPDEST PUSH0 DUP2 SWAP1 POP SWAP2 SWAP1 POP JUMP JUMPDEST PUSH2 0x334 DUP2 PUSH2 0x322 JUMP JUMPDEST DUP3 MSTORE POP POP JUMP JUMPDEST PUSH0 PUSH1 0x20 DUP3 ADD SWAP1 POP PUSH2 0x34D PUSH0 DUP4 ADD DUP5 PUSH2 0x32B JUMP JUMPDEST SWAP3 SWAP2 POP POP JUMP JUMPDEST PUSH0 PUSH1 0x40 MLOAD SWAP1 POP SWAP1 JUMP JUMPDEST PUSH0 DUP1 REVERT JUMPDEST PUSH0 DUP1 REVERT JUMPDEST PUSH0 DUP1 REVERT JUMPDEST PUSH0 DUP1 REVERT JUMPDEST PUSH0 PUSH1 0x1F NOT PUSH1 0x1F DUP4 ADD AND SWAP1 POP SWAP2 SWAP1 POP JUMP JUMPDEST PUSH32 0x4E487B7100000000000000000000000000000000000000000000000000000000 PUSH0 MSTORE PUSH1 0x41 PUSH1 0x4 MSTORE PUSH1 0x24 PUSH0 REVERT JUMPDEST PUSH2 0x3B2 DUP3 PUSH2 0x36C JUMP JUMPDEST DUP2 ADD DUP2 DUP2 LT PUSH8 0xFFFFFFFFFFFFFFFF DUP3 GT OR ISZERO PUSH2 0x3D1 JUMPI PUSH2 0x3D0 PUSH2 0x37C JUMP JUMPDEST JUMPDEST DUP1 PUSH1 0x40 MSTORE POP POP POP JUMP JUMPDEST PUSH0 PUSH2 0x3E3 PUSH2 0x353 JUMP JUMPDEST SWAP1 POP PUSH2 0x3EF DUP3 DUP3 PUSH2 0x3A9 JUMP JUMPDEST SWAP2 SWAP1 POP JUMP JUMPDEST PUSH0 PUSH8 0xFFFFFFFFFFFFFFFF DUP3 GT ISZERO PUSH2 0x40E JUMPI PUSH2 0x40D PUSH2 0x37C JUMP JUMPDEST JUMPDEST PUSH2 0x417 DUP3 PUSH2 0x36C JUMP JUMPDEST SWAP1 POP PUSH1 0x20 DUP2 ADD SWAP1 POP SWAP2 SWAP1 POP JUMP JUMPDEST DUP3 DUP2 DUP4 CALLDATACOPY PUSH0 DUP4 DUP4 ADD MSTORE POP POP POP JUMP JUMPDEST PUSH0 PUSH2 0x444 PUSH2 0x43F DUP5 PUSH2 0x3F4 JUMP JUMPDEST PUSH2 0x3DA JUMP JUMPDEST SWAP1 POP DUP3 DUP2 MSTORE PUSH1 0x20 DUP2 ADD DUP5 DUP5 DUP5 ADD GT ISZERO PUSH2 0x460 JUMPI PUSH2 0x45F PUSH2 0x368 JUMP JUMPDEST JUMPDEST PUSH2 0x46B DUP5 DUP3 DUP6 PUSH2 0x424 JUMP JUMPDEST POP SWAP4 SWAP3 POP POP POP JUMP JUMPDEST PUSH0 DUP3 PUSH1 0x1F DUP4 ADD SLT PUSH2 0x487 JUMPI PUSH2 0x486 PUSH2 0x364 JUMP JUMPDEST JUMPDEST DUP2 CALLDATALOAD PUSH2 0x497 DUP5 DUP3 PUSH1 0x20 DUP7 ADD PUSH2 0x432 JUMP JUMPDEST SWAP2 POP POP SWAP3 SWAP2 POP POP JUMP JUMPDEST PUSH2 0x4A9 DUP2 PUSH2 0x322 JUMP JUMPDEST DUP2 EQ PUSH2 0x4B3 JUMPI PUSH0 DUP1 REVERT JUMPDEST POP JUMP JUMPDEST PUSH0 DUP2 CALLDATALOAD SWAP1 POP PUSH2 0x4C4 DUP2 PUSH2 0x4A0 JUMP JUMPDEST SWAP3 SWAP2 POP POP JUMP JUMPDEST PUSH0 DUP1 PUSH0 DUP1 PUSH1 0x80 DUP6 DUP8 SUB SLT ISZERO PUSH2 0x4E2 JUMPI PUSH2 0x4E1 PUSH2 0x35C JUMP JUMPDEST JUMPDEST PUSH0 DUP6 ADD CALLDATALOAD PUSH8 0xFFFFFFFFFFFFFFFF DUP2 GT ISZERO PUSH2 0x4FF JUMPI PUSH2 0x4FE PUSH2 0x360 JUMP JUMPDEST JUMPDEST PUSH2 0x50B DUP8 DUP3 DUP9 ADD PUSH2 0x473 JUMP JUMPDEST SWAP5 POP POP PUSH1 0x20 DUP6 ADD CALLDATALOAD PUSH8 0xFFFFFFFFFFFFFFFF DUP2 GT ISZERO PUSH2 0x52C JUMPI PUSH2 0x52B PUSH2 0x360 JUMP JUMPDEST JUMPDEST PUSH2 0x538 DUP8 DUP3 DUP9 ADD PUSH2 0x473 JUMP JUMPDEST SWAP4 POP POP PUSH1 0x40 PUSH2 0x549 DUP8 DUP3 DUP9 ADD PUSH2 0x4B6 JUMP JUMPDEST SWAP3 POP POP PUSH1 0x60 DUP6 ADD CALLDATALOAD PUSH8 0xFFFFFFFFFFFFFFFF DUP2 GT ISZERO PUSH2 0x56A JUMPI PUSH2 0x569 PUSH2 0x360 JUMP JUMPDEST JUMPDEST PUSH2 0x576 DUP8 DUP3 DUP9 ADD PUSH2 0x473 JUMP JUMPDEST SWAP2 POP POP SWAP3 SWAP6 SWAP2 SWAP5 POP SWAP3 POP JUMP JUMPDEST PUSH0 PUSH1 0x20 DUP3 DUP5 SUB SLT ISZERO PUSH2 0x597 JUMPI PUSH2 0x596 PUSH2 0x35C JUMP JUMPDEST JUMPDEST PUSH0 PUSH2 0x5A4 DUP5 DUP3 DUP6 ADD PUSH2 0x4B6 JUMP JUMPDEST SWAP2 POP POP SWAP3 SWAP2 POP POP JUMP JUMPDEST PUSH0 DUP2 MLOAD SWAP1 POP SWAP2 SWAP1 POP JUMP JUMPDEST PUSH0 DUP3 DUP3 MSTORE PUSH1 0x20 DUP3 ADD SWAP1 POP SWAP3 SWAP2 POP POP JUMP JUMPDEST PUSH0 JUMPDEST DUP4 DUP2 LT ISZERO PUSH2 0x5E4 JUMPI DUP1 DUP3 ADD MLOAD DUP2 DUP5 ADD MSTORE PUSH1 0x20 DUP2 ADD SWAP1 POP PUSH2 0x5C9 JUMP JUMPDEST PUSH0 DUP5 DUP5 ADD MSTORE POP POP POP POP JUMP JUMPDEST PUSH0 PUSH2 0x5F9 DUP3 PUSH2 0x5AD JUMP JUMPDEST PUSH2 0x603 DUP2 DUP6 PUSH2 0x5B7 JUMP JUMPDEST SWAP4 POP PUSH2 0x613 DUP2 DUP6 PUSH1 0x20 DUP7 ADD PUSH2 0x5C7 JUMP JUMPDEST PUSH2 0x61C DUP2 PUSH2 0x36C JUMP JUMPDEST DUP5 ADD SWAP2 POP POP SWAP3 SWAP2 POP POP JUMP JUMPDEST PUSH0 PUSH1 0x80 DUP3 ADD SWAP1 POP DUP2 DUP2 SUB PUSH0 DUP4 ADD MSTORE PUSH2 0x63F DUP2 DUP8 PUSH2 0x5EF JUMP JUMPDEST SWAP1 POP DUP2 DUP2 SUB PUSH1 0x20 DUP4 ADD MSTORE PUSH2 0x653 DUP2 DUP7 PUSH2 0x5EF JUMP JUMPDEST SWAP1 POP PUSH2 0x662 PUSH1 0x40 DUP4 ADD DUP6 PUSH2 0x32B JUMP JUMPDEST DUP2 DUP2 SUB PUSH1 0x60 DUP4 ADD MSTORE PUSH2 0x674 DUP2 DUP5 PUSH2 0x5EF JUMP JUMPDEST SWAP1 POP SWAP6 SWAP5 POP POP POP POP POP JUMP JUMPDEST PUSH32 0x4E487B7100000000000000000000000000000000000000000000000000000000 PUSH0 MSTORE PUSH1 0x22 PUSH1 0x4 MSTORE PUSH1 0x24 PUSH0 REVERT JUMPDEST PUSH0 PUSH1 0x2 DUP3 DIV SWAP1 POP PUSH1 0x1 DUP3 AND DUP1 PUSH2 0x6C3 JUMPI PUSH1 0x7F DUP3 AND SWAP2 POP JUMPDEST PUSH1 0x20 DUP3 LT DUP2 SUB PUSH2 0x6D6 JUMPI PUSH2 0x6D5 PUSH2 0x67F JUMP JUMPDEST JUMPDEST POP SWAP2 SWAP1 POP JUMP JUMPDEST PUSH0 DUP2 SWAP1 POP DUP2 PUSH0 MSTORE PUSH1 0x20 PUSH0 KECCAK256 SWAP1 POP SWAP2 SWAP1 POP JUMP JUMPDEST PUSH0 PUSH1 0x20 PUSH1 0x1F DUP4 ADD DIV SWAP1 POP SWAP2 SWAP1 POP JUMP JUMPDEST PUSH0 DUP3 DUP3 SHL SWAP1 POP SWAP3 SWAP2 POP POP JUMP JUMPDEST PUSH0 PUSH1 0x8 DUP4 MUL PUSH2 0x738 PUSH32 0xFFFFFFFFFFFFFFFFFFFFFFFFFFFFFFFFFFFFFFFFFFFFFFFFFFFFFFFFFFFFFFFF DUP3 PUSH2 0x6FD JUMP JUMPDEST PUSH2 0x742 DUP7 DUP4 PUSH2 0x6FD JUMP JUMPDEST SWAP6 POP DUP1 NOT DUP5 AND SWAP4 POP DUP1 DUP7 AND DUP5 OR SWAP3 POP POP POP SWAP4 SWAP3 POP POP POP JUMP JUMPDEST PUSH0 DUP2 SWAP1 POP SWAP2 SWAP1 POP JUMP JUMPDEST PUSH0 PUSH2 0x77D PUSH2 0x778 PUSH2 0x773 DUP5 PUSH2 0x322 JUMP JUMPDEST PUSH2 0x75A JUMP JUMPDEST PUSH2 0x322 JUMP JUMPDEST SWAP1 POP SWAP2 SWAP1 POP JUMP JUMPDEST PUSH0 DUP2 SWAP1 POP SWAP2 SWAP1 POP JUMP JUMPDEST PUSH2 0x796 DUP4 PUSH2 0x763 JUMP JUMPDEST PUSH2 0x7AA PUSH2 0x7A2 DUP3 PUSH2 0x784 JUMP JUMPDEST DUP5 DUP5 SLOAD PUSH2 0x709 JUMP JUMPDEST DUP3 SSTORE POP POP POP POP JUMP JUMPDEST PUSH0 SWAP1 JUMP JUMPDEST PUSH2 0x7BE PUSH2 0x7B2 JUMP JUMPDEST PUSH2 0x7C9 DUP2 DUP5 DUP5 PUSH2 0x78D JUMP JUMPDEST POP POP POP JUMP JUMPDEST JUMPDEST DUP2 DUP2 LT ISZERO PUSH2 0x7EC JUMPI PUSH2 0x7E1 PUSH0 DUP3 PUSH2 0x7B6 JUMP JUMPDEST PUSH1 0x1 DUP2 ADD SWAP1 POP PUSH2 0x7CF JUMP JUMPDEST POP POP JUMP JUMPDEST PUSH1 0x1F DUP3 GT ISZERO PUSH2 0x831 JUMPI PUSH2 0x802 DUP2 PUSH2 0x6DC JUMP JUMPDEST PUSH2 0x80B DUP5 PUSH2 0x6EE JUMP JUMPDEST DUP2 ADD PUSH1 0x20 DUP6 LT ISZERO PUSH2 0x81A JUMPI DUP2 SWAP1 POP JUMPDEST PUSH2 0x82E PUSH2 0x826 DUP6 PUSH2 0x6EE JUMP JUMPDEST DUP4 ADD DUP3 PUSH2 0x7CE JUMP JUMPDEST POP POP JUMPDEST POP POP POP JUMP JUMPDEST PUSH0 DUP3 DUP3 SHR SWAP1 POP SWAP3 SWAP2 POP POP JUMP JUMPDEST PUSH0 PUSH2 0x851 PUSH0 NOT DUP5 PUSH1 0x8 MUL PUSH2 0x836 JUMP JUMPDEST NOT DUP1 DUP4 AND SWAP2 POP POP SWAP3 SWAP2 POP POP JUMP JUMPDEST PUSH0 PUSH2 0x869 DUP4 DUP4 PUSH2 0x842 JUMP JUMPDEST SWAP2 POP DUP3 PUSH1 0x2 MUL DUP3 OR SWAP1 POP SWAP3 SWAP2 POP POP JUMP JUMPDEST PUSH2 0x882 DUP3 PUSH2 0x5AD JUMP JUMPDEST PUSH8 0xFFFFFFFFFFFFFFFF DUP2 GT ISZERO PUSH2 0x89B JUMPI PUSH2 0x89A PUSH2 0x37C JUMP JUMPDEST JUMPDEST PUSH2 0x8A5 DUP3 SLOAD PUSH2 0x6AC JUMP JUMPDEST PUSH2 0x8B0 DUP3 DUP3 DUP6 PUSH2 0x7F0 JUMP JUMPDEST PUSH0 PUSH1 0x20 SWAP1 POP PUSH1 0x1F DUP4 GT PUSH1 0x1 DUP2 EQ PUSH2 0x8E1 JUMPI PUSH0 DUP5 ISZERO PUSH2 0x8CF JUMPI DUP3 DUP8 ADD MLOAD SWAP1 POP JUMPDEST PUSH2 0x8D9 DUP6 DUP3 PUSH2 0x85E JUMP JUMPDEST DUP7 SSTORE POP PUSH2 0x940 JUMP JUMPDEST PUSH1 0x1F NOT DUP5 AND PUSH2 0x8EF DUP7 PUSH2 0x6DC JUMP JUMPDEST PUSH0 JUMPDEST DUP3 DUP2 LT ISZERO PUSH2 0x916 JUMPI DUP5 DUP10 ADD MLOAD DUP3 SSTORE PUSH1 0x1 DUP3 ADD SWAP2 POP PUSH1 0x20 DUP6 ADD SWAP5 POP PUSH1 0x20 DUP2 ADD SWAP1 POP PUSH2 0x8F1 JUMP JUMPDEST DUP7 DUP4 LT ISZERO PUSH2 0x933 JUMPI DUP5 DUP10 ADD MLOAD PUSH2 0x92F PUSH1 0x1F DUP10 AND DUP3 PUSH2 0x842 JUMP JUMPDEST DUP4 SSTORE POP JUMPDEST PUSH1 0x1 PUSH1 0x2 DUP9 MUL ADD DUP9 SSTORE POP POP POP JUMPDEST POP POP POP POP POP POP JUMP INVALID LOG2 PUSH5 0x6970667358 0x22 SLT KECCAK256 0xAF CALL CALLER MULMOD 0xE6 0xB3 0xC8 MSTORE8 SHL 0xD6 PUSH24 0x639664F63E4C44720AA1710D5C1B7A12D6011A3D9B64736F PUSH13 0x63430008160033000000000000 "
				},
				"gasEstimates": {
					"creation": {
						"codeDepositCost": "486000",
						"executionCost": "22621",
						"totalCost": "508621"
					},
					"external": {
						"addplayer(string,string,uint256,string)": "infinite",
						"number()": "2402",
						"players(uint256)": "infinite"
					}
				},
				"methodIdentifiers": {
					"addplayer(string,string,uint256,string)": "8481f461",
					"number()": "8381f58a",
					"players(uint256)": "f71d96cb"
				}
			},
			"storageLayout": {
				"storage": [
					{
						"astId": 4,
						"contract": "contracts/Struct.sol:team",
						"label": "number",
						"offset": 0,
						"slot": "0",
						"type": "t_uint256"
					},
					{
						"astId": 17,
						"contract": "contracts/Struct.sol:team",
						"label": "players",
						"offset": 0,
						"slot": "1",
						"type": "t_array(t_struct(player)13_storage)dyn_storage"
					}
				],
				"types": {
					"t_array(t_struct(player)13_storage)dyn_storage": {
						"base": "t_struct(player)13_storage",
						"encoding": "dynamic_array",
						"label": "struct team.player[]",
						"numberOfBytes": "32"
					},
					"t_string_storage": {
						"encoding": "bytes",
						"label": "string",
						"numberOfBytes": "32"
					},
					"t_struct(player)13_storage": {
						"encoding": "inplace",
						"label": "struct team.player",
						"members": [
							{
								"astId": 6,
								"contract": "contracts/Struct.sol:team",
								"label": "firstname",
								"offset": 0,
								"slot": "0",
								"type": "t_string_storage"
							},
							{
								"astId": 8,
								"contract": "contracts/Struct.sol:team",
								"label": "secondname",
								"offset": 0,
								"slot": "1",
								"type": "t_string_storage"
							},
							{
								"astId": 10,
								"contract": "contracts/Struct.sol:team",
								"label": "age",
								"offset": 0,
								"slot": "2",
								"type": "t_uint256"
							},
							{
								"astId": 12,
								"contract": "contracts/Struct.sol:team",
								"label": "gender",
								"offset": 0,
								"slot": "3",
								"type": "t_string_storage"
							}
						],
						"numberOfBytes": "128"
					},
					"t_uint256": {
						"encoding": "inplace",
						"label": "uint256",
						"numberOfBytes": "32"
					}
				}
			},
			"userdoc": {
				"kind": "user",
				"methods": {},
				"version": 1
			}
		}
	}
}