{
	"contracts/bank.sol": {
		"bank": {
			"abi": [
				{
					"inputs": [],
					"stateMutability": "nonpayable",
					"type": "constructor"
				},
				{
					"inputs": [
						{
							"internalType": "uint256",
							"name": "_toadd",
							"type": "uint256"
						}
					],
					"name": "addbalance",
					"outputs": [
						{
							"internalType": "uint256",
							"name": "",
							"type": "uint256"
						}
					],
					"stateMutability": "nonpayable",
					"type": "function"
				},
				{
					"inputs": [],
					"name": "getbalance",
					"outputs": [
						{
							"internalType": "uint256",
							"name": "",
							"type": "uint256"
						}
					],
					"stateMutability": "view",
					"type": "function"
				},
				{
					"inputs": [
						{
							"internalType": "address",
							"name": "recipient",
							"type": "address"
						},
						{
							"internalType": "uint256",
							"name": "amount",
							"type": "uint256"
						}
					],
					"name": "transfer",
					"outputs": [],
					"stateMutability": "nonpayable",
					"type": "function"
				}
			],
			"devdoc": {
				"kind": "dev",
				"methods": {},
				"version": 1
			},
			"evm": {
				"assembly": "    /* \"contracts/bank.sol\":67:980  contract bank{... */\n  mstore(0x40, 0x80)\n    /* \"contracts/bank.sol\":248:298  constructor(){... */\n  callvalue\n  dup1\n  iszero\n  tag_1\n  jumpi\n  0x00\n  dup1\n  revert\ntag_1:\n  pop\n    /* \"contracts/bank.sol\":280:290  msg.sender */\n  caller\n    /* \"contracts/bank.sol\":272:277  owner */\n  0x01\n  0x00\n    /* \"contracts/bank.sol\":272:290  owner = msg.sender */\n  0x0100\n  exp\n  dup2\n  sload\n  dup2\n  0xffffffffffffffffffffffffffffffffffffffff\n  mul\n  not\n  and\n  swap1\n  dup4\n  0xffffffffffffffffffffffffffffffffffffffff\n  and\n  mul\n  or\n  swap1\n  sstore\n  pop\n    /* \"contracts/bank.sol\":67:980  contract bank{... */\n  dataSize(sub_0)\n  dup1\n  dataOffset(sub_0)\n  0x00\n  codecopy\n  0x00\n  return\nstop\n\nsub_0: assembly {\n        /* \"contracts/bank.sol\":67:980  contract bank{... */\n      mstore(0x40, 0x80)\n      callvalue\n      dup1\n      iszero\n      tag_1\n      jumpi\n      0x00\n      dup1\n      revert\n    tag_1:\n      pop\n      jumpi(tag_2, lt(calldatasize, 0x04))\n      shr(0xe0, calldataload(0x00))\n      dup1\n      0x4d9b3d5d\n      eq\n      tag_3\n      jumpi\n      dup1\n      0xa9059cbb\n      eq\n      tag_4\n      jumpi\n      dup1\n      0xcd1e7529\n      eq\n      tag_5\n      jumpi\n    tag_2:\n      0x00\n      dup1\n      revert\n        /* \"contracts/bank.sol\":454:547  function getbalance() public view returns(uint){... */\n    tag_3:\n      tag_6\n      tag_7\n      jump\t// in\n    tag_6:\n      mload(0x40)\n      tag_8\n      swap2\n      swap1\n      tag_9\n      jump\t// in\n    tag_8:\n      mload(0x40)\n      dup1\n      swap2\n      sub\n      swap1\n      return\n        /* \"contracts/bank.sol\":554:977  function transfer (address recipient , uint amount) public onlyOwner{... */\n    tag_4:\n      tag_10\n      0x04\n      dup1\n      calldatasize\n      sub\n      dup2\n      add\n      swap1\n      tag_11\n      swap2\n      swap1\n      tag_12\n      jump\t// in\n    tag_11:\n      tag_13\n      jump\t// in\n    tag_10:\n      stop\n        /* \"contracts/bank.sol\":306:448  function addbalance(uint _toadd) public returns(uint){... */\n    tag_5:\n      tag_14\n      0x04\n      dup1\n      calldatasize\n      sub\n      dup2\n      add\n      swap1\n      tag_15\n      swap2\n      swap1\n      tag_16\n      jump\t// in\n    tag_15:\n      tag_17\n      jump\t// in\n    tag_14:\n      mload(0x40)\n      tag_18\n      swap2\n      swap1\n      tag_9\n      jump\t// in\n    tag_18:\n      mload(0x40)\n      dup1\n      swap2\n      sub\n      swap1\n      return\n        /* \"contracts/bank.sol\":454:547  function getbalance() public view returns(uint){... */\n    tag_7:\n        /* \"contracts/bank.sol\":496:500  uint */\n      0x00\n        /* \"contracts/bank.sol\":519:526  balance */\n      dup1\n        /* \"contracts/bank.sol\":519:539  balance [msg.sender] */\n      0x00\n        /* \"contracts/bank.sol\":528:538  msg.sender */\n      caller\n        /* \"contracts/bank.sol\":519:539  balance [msg.sender] */\n      0xffffffffffffffffffffffffffffffffffffffff\n      and\n      0xffffffffffffffffffffffffffffffffffffffff\n      and\n      dup2\n      mstore\n      0x20\n      add\n      swap1\n      dup2\n      mstore\n      0x20\n      add\n      0x00\n      keccak256\n      sload\n        /* \"contracts/bank.sol\":512:539  return balance [msg.sender] */\n      swap1\n      pop\n        /* \"contracts/bank.sol\":454:547  function getbalance() public view returns(uint){... */\n      swap1\n      jump\t// out\n        /* \"contracts/bank.sol\":554:977  function transfer (address recipient , uint amount) public onlyOwner{... */\n    tag_13:\n        /* \"contracts/bank.sol\":189:199  msg.sender */\n      caller\n        /* \"contracts/bank.sol\":180:199  owner == msg.sender */\n      0xffffffffffffffffffffffffffffffffffffffff\n      and\n        /* \"contracts/bank.sol\":180:185  owner */\n      0x01\n      0x00\n      swap1\n      sload\n      swap1\n      0x0100\n      exp\n      swap1\n      div\n      0xffffffffffffffffffffffffffffffffffffffff\n      and\n        /* \"contracts/bank.sol\":180:199  owner == msg.sender */\n      0xffffffffffffffffffffffffffffffffffffffff\n      and\n      eq\n        /* \"contracts/bank.sol\":172:219  require(owner == msg.sender, \"you r not owner\") */\n      tag_21\n      jumpi\n      mload(0x40)\n      0x08c379a000000000000000000000000000000000000000000000000000000000\n      dup2\n      mstore\n      0x04\n      add\n      tag_22\n      swap1\n      tag_23\n      jump\t// in\n    tag_22:\n      mload(0x40)\n      dup1\n      swap2\n      sub\n      swap1\n      revert\n    tag_21:\n        /* \"contracts/bank.sol\":672:678  amount */\n      dup1\n        /* \"contracts/bank.sol\":651:658  balance */\n      0x00\n        /* \"contracts/bank.sol\":651:670  balance[msg.sender] */\n      dup1\n        /* \"contracts/bank.sol\":659:669  msg.sender */\n      caller\n        /* \"contracts/bank.sol\":651:670  balance[msg.sender] */\n      0xffffffffffffffffffffffffffffffffffffffff\n      and\n      0xffffffffffffffffffffffffffffffffffffffff\n      and\n      dup2\n      mstore\n      0x20\n      add\n      swap1\n      dup2\n      mstore\n      0x20\n      add\n      0x00\n      keccak256\n      sload\n        /* \"contracts/bank.sol\":651:678  balance[msg.sender]>=amount */\n      lt\n      iszero\n        /* \"contracts/bank.sol\":643:705  require(balance[msg.sender]>=amount , \"you dont have balance\") */\n      tag_25\n      jumpi\n      mload(0x40)\n      0x08c379a000000000000000000000000000000000000000000000000000000000\n      dup2\n      mstore\n      0x04\n      add\n      tag_26\n      swap1\n      tag_27\n      jump\t// in\n    tag_26:\n      mload(0x40)\n      dup1\n      swap2\n      sub\n      swap1\n      revert\n    tag_25:\n        /* \"contracts/bank.sol\":738:747  recipient */\n      dup2\n        /* \"contracts/bank.sol\":724:747  msg.sender != recipient */\n      0xffffffffffffffffffffffffffffffffffffffff\n      and\n        /* \"contracts/bank.sol\":724:734  msg.sender */\n      caller\n        /* \"contracts/bank.sol\":724:747  msg.sender != recipient */\n      0xffffffffffffffffffffffffffffffffffffffff\n      and\n      sub\n        /* \"contracts/bank.sol\":716:749  require(msg.sender != recipient ) */\n      tag_28\n      jumpi\n      0x00\n      dup1\n      revert\n    tag_28:\n        /* \"contracts/bank.sol\":762:788  uint previousSenderBalance */\n      0x00\n        /* \"contracts/bank.sol\":790:797  balance */\n      dup1\n        /* \"contracts/bank.sol\":790:810  balance [msg.sender] */\n      0x00\n        /* \"contracts/bank.sol\":799:809  msg.sender */\n      caller\n        /* \"contracts/bank.sol\":790:810  balance [msg.sender] */\n      0xffffffffffffffffffffffffffffffffffffffff\n      and\n      0xffffffffffffffffffffffffffffffffffffffff\n      and\n      dup2\n      mstore\n      0x20\n      add\n      swap1\n      dup2\n      mstore\n      0x20\n      add\n      0x00\n      keccak256\n      sload\n        /* \"contracts/bank.sol\":762:810  uint previousSenderBalance= balance [msg.sender] */\n      swap1\n      pop\n        /* \"contracts/bank.sol\":846:852  amount */\n      dup2\n        /* \"contracts/bank.sol\":823:830  balance */\n      0x00\n        /* \"contracts/bank.sol\":823:842  balance[msg.sender] */\n      dup1\n        /* \"contracts/bank.sol\":831:841  msg.sender */\n      caller\n        /* \"contracts/bank.sol\":823:842  balance[msg.sender] */\n      0xffffffffffffffffffffffffffffffffffffffff\n      and\n      0xffffffffffffffffffffffffffffffffffffffff\n      and\n      dup2\n      mstore\n      0x20\n      add\n      swap1\n      dup2\n      mstore\n      0x20\n      add\n      0x00\n      keccak256\n      0x00\n        /* \"contracts/bank.sol\":823:852  balance[msg.sender] -= amount */\n      dup3\n      dup3\n      sload\n      tag_29\n      swap2\n      swap1\n      tag_30\n      jump\t// in\n    tag_29:\n      swap3\n      pop\n      pop\n      dup2\n      swap1\n      sstore\n      pop\n        /* \"contracts/bank.sol\":886:892  amount */\n      dup2\n        /* \"contracts/bank.sol\":863:870  balance */\n      0x00\n        /* \"contracts/bank.sol\":863:882  balance [recipient] */\n      dup1\n        /* \"contracts/bank.sol\":872:881  recipient */\n      dup6\n        /* \"contracts/bank.sol\":863:882  balance [recipient] */\n      0xffffffffffffffffffffffffffffffffffffffff\n      and\n      0xffffffffffffffffffffffffffffffffffffffff\n      and\n      dup2\n      mstore\n      0x20\n      add\n      swap1\n      dup2\n      mstore\n      0x20\n      add\n      0x00\n      keccak256\n      0x00\n        /* \"contracts/bank.sol\":863:892  balance [recipient] += amount */\n      dup3\n      dup3\n      sload\n      tag_31\n      swap2\n      swap1\n      tag_32\n      jump\t// in\n    tag_31:\n      swap3\n      pop\n      pop\n      dup2\n      swap1\n      sstore\n      pop\n        /* \"contracts/bank.sol\":959:965  amount */\n      dup2\n        /* \"contracts/bank.sol\":935:956  previousSenderBalance */\n      dup2\n        /* \"contracts/bank.sol\":935:965  previousSenderBalance - amount */\n      tag_33\n      swap2\n      swap1\n      tag_30\n      jump\t// in\n    tag_33:\n        /* \"contracts/bank.sol\":913:920  balance */\n      0x00\n        /* \"contracts/bank.sol\":913:932  balance[msg.sender] */\n      dup1\n        /* \"contracts/bank.sol\":921:931  msg.sender */\n      caller\n        /* \"contracts/bank.sol\":913:932  balance[msg.sender] */\n      0xffffffffffffffffffffffffffffffffffffffff\n      and\n      0xffffffffffffffffffffffffffffffffffffffff\n      and\n      dup2\n      mstore\n      0x20\n      add\n      swap1\n      dup2\n      mstore\n      0x20\n      add\n      0x00\n      keccak256\n      sload\n        /* \"contracts/bank.sol\":913:965  balance[msg.sender]== previousSenderBalance - amount */\n      eq\n        /* \"contracts/bank.sol\":905:966  assert (balance[msg.sender]== previousSenderBalance - amount) */\n      tag_34\n      jumpi\n      tag_35\n      tag_36\n      jump\t// in\n    tag_35:\n    tag_34:\n        /* \"contracts/bank.sol\":622:977  {... */\n      pop\n        /* \"contracts/bank.sol\":554:977  function transfer (address recipient , uint amount) public onlyOwner{... */\n      pop\n      pop\n      jump\t// out\n        /* \"contracts/bank.sol\":306:448  function addbalance(uint _toadd) public returns(uint){... */\n    tag_17:\n        /* \"contracts/bank.sol\":354:358  uint */\n      0x00\n        /* \"contracts/bank.sol\":394:400  _toadd */\n      dup2\n        /* \"contracts/bank.sol\":370:377  balance */\n      0x00\n        /* \"contracts/bank.sol\":370:390  balance [msg.sender] */\n      dup1\n        /* \"contracts/bank.sol\":379:389  msg.sender */\n      caller\n        /* \"contracts/bank.sol\":370:390  balance [msg.sender] */\n      0xffffffffffffffffffffffffffffffffffffffff\n      and\n      0xffffffffffffffffffffffffffffffffffffffff\n      and\n      dup2\n      mstore\n      0x20\n      add\n      swap1\n      dup2\n      mstore\n      0x20\n      add\n      0x00\n      keccak256\n      0x00\n        /* \"contracts/bank.sol\":370:400  balance [msg.sender] += _toadd */\n      dup3\n      dup3\n      sload\n      tag_38\n      swap2\n      swap1\n      tag_32\n      jump\t// in\n    tag_38:\n      swap3\n      pop\n      pop\n      dup2\n      swap1\n      sstore\n      pop\n        /* \"contracts/bank.sol\":418:425  balance */\n      0x00\n        /* \"contracts/bank.sol\":418:438  balance [msg.sender] */\n      dup1\n        /* \"contracts/bank.sol\":427:437  msg.sender */\n      caller\n        /* \"contracts/bank.sol\":418:438  balance [msg.sender] */\n      0xffffffffffffffffffffffffffffffffffffffff\n      and\n      0xffffffffffffffffffffffffffffffffffffffff\n      and\n      dup2\n      mstore\n      0x20\n      add\n      swap1\n      dup2\n      mstore\n      0x20\n      add\n      0x00\n      keccak256\n      sload\n        /* \"contracts/bank.sol\":411:438  return balance [msg.sender] */\n      swap1\n      pop\n        /* \"contracts/bank.sol\":306:448  function addbalance(uint _toadd) public returns(uint){... */\n      swap2\n      swap1\n      pop\n      jump\t// out\n        /* \"#utility.yul\":7:84   */\n    tag_39:\n        /* \"#utility.yul\":44:51   */\n      0x00\n        /* \"#utility.yul\":73:78   */\n      dup2\n        /* \"#utility.yul\":62:78   */\n      swap1\n      pop\n        /* \"#utility.yul\":7:84   */\n      swap2\n      swap1\n      pop\n      jump\t// out\n        /* \"#utility.yul\":90:208   */\n    tag_40:\n        /* \"#utility.yul\":177:201   */\n      tag_59\n        /* \"#utility.yul\":195:200   */\n      dup2\n        /* \"#utility.yul\":177:201   */\n      tag_39\n      jump\t// in\n    tag_59:\n        /* \"#utility.yul\":172:175   */\n      dup3\n        /* \"#utility.yul\":165:202   */\n      mstore\n        /* \"#utility.yul\":90:208   */\n      pop\n      pop\n      jump\t// out\n        /* \"#utility.yul\":214:436   */\n    tag_9:\n        /* \"#utility.yul\":307:311   */\n      0x00\n        /* \"#utility.yul\":345:347   */\n      0x20\n        /* \"#utility.yul\":334:343   */\n      dup3\n        /* \"#utility.yul\":330:348   */\n      add\n        /* \"#utility.yul\":322:348   */\n      swap1\n      pop\n        /* \"#utility.yul\":358:429   */\n      tag_61\n        /* \"#utility.yul\":426:427   */\n      0x00\n        /* \"#utility.yul\":415:424   */\n      dup4\n        /* \"#utility.yul\":411:428   */\n      add\n        /* \"#utility.yul\":402:408   */\n      dup5\n        /* \"#utility.yul\":358:429   */\n      tag_40\n      jump\t// in\n    tag_61:\n        /* \"#utility.yul\":214:436   */\n      swap3\n      swap2\n      pop\n      pop\n      jump\t// out\n        /* \"#utility.yul\":523:640   */\n    tag_42:\n        /* \"#utility.yul\":632:633   */\n      0x00\n        /* \"#utility.yul\":629:630   */\n      dup1\n        /* \"#utility.yul\":622:634   */\n      revert\n        /* \"#utility.yul\":769:895   */\n    tag_44:\n        /* \"#utility.yul\":806:813   */\n      0x00\n        /* \"#utility.yul\":846:888   */\n      0xffffffffffffffffffffffffffffffffffffffff\n        /* \"#utility.yul\":839:844   */\n      dup3\n        /* \"#utility.yul\":835:889   */\n      and\n        /* \"#utility.yul\":824:889   */\n      swap1\n      pop\n        /* \"#utility.yul\":769:895   */\n      swap2\n      swap1\n      pop\n      jump\t// out\n        /* \"#utility.yul\":901:997   */\n    tag_45:\n        /* \"#utility.yul\":938:945   */\n      0x00\n        /* \"#utility.yul\":967:991   */\n      tag_67\n        /* \"#utility.yul\":985:990   */\n      dup3\n        /* \"#utility.yul\":967:991   */\n      tag_44\n      jump\t// in\n    tag_67:\n        /* \"#utility.yul\":956:991   */\n      swap1\n      pop\n        /* \"#utility.yul\":901:997   */\n      swap2\n      swap1\n      pop\n      jump\t// out\n        /* \"#utility.yul\":1003:1125   */\n    tag_46:\n        /* \"#utility.yul\":1076:1100   */\n      tag_69\n        /* \"#utility.yul\":1094:1099   */\n      dup2\n        /* \"#utility.yul\":1076:1100   */\n      tag_45\n      jump\t// in\n    tag_69:\n        /* \"#utility.yul\":1069:1074   */\n      dup2\n        /* \"#utility.yul\":1066:1101   */\n      eq\n        /* \"#utility.yul\":1056:1119   */\n      tag_70\n      jumpi\n        /* \"#utility.yul\":1115:1116   */\n      0x00\n        /* \"#utility.yul\":1112:1113   */\n      dup1\n        /* \"#utility.yul\":1105:1117   */\n      revert\n        /* \"#utility.yul\":1056:1119   */\n    tag_70:\n        /* \"#utility.yul\":1003:1125   */\n      pop\n      jump\t// out\n        /* \"#utility.yul\":1131:1270   */\n    tag_47:\n        /* \"#utility.yul\":1177:1182   */\n      0x00\n        /* \"#utility.yul\":1215:1221   */\n      dup2\n        /* \"#utility.yul\":1202:1222   */\n      calldataload\n        /* \"#utility.yul\":1193:1222   */\n      swap1\n      pop\n        /* \"#utility.yul\":1231:1264   */\n      tag_72\n        /* \"#utility.yul\":1258:1263   */\n      dup2\n        /* \"#utility.yul\":1231:1264   */\n      tag_46\n      jump\t// in\n    tag_72:\n        /* \"#utility.yul\":1131:1270   */\n      swap3\n      swap2\n      pop\n      pop\n      jump\t// out\n        /* \"#utility.yul\":1276:1398   */\n    tag_48:\n        /* \"#utility.yul\":1349:1373   */\n      tag_74\n        /* \"#utility.yul\":1367:1372   */\n      dup2\n        /* \"#utility.yul\":1349:1373   */\n      tag_39\n      jump\t// in\n    tag_74:\n        /* \"#utility.yul\":1342:1347   */\n      dup2\n        /* \"#utility.yul\":1339:1374   */\n      eq\n        /* \"#utility.yul\":1329:1392   */\n      tag_75\n      jumpi\n        /* \"#utility.yul\":1388:1389   */\n      0x00\n        /* \"#utility.yul\":1385:1386   */\n      dup1\n        /* \"#utility.yul\":1378:1390   */\n      revert\n        /* \"#utility.yul\":1329:1392   */\n    tag_75:\n        /* \"#utility.yul\":1276:1398   */\n      pop\n      jump\t// out\n        /* \"#utility.yul\":1404:1543   */\n    tag_49:\n        /* \"#utility.yul\":1450:1455   */\n      0x00\n        /* \"#utility.yul\":1488:1494   */\n      dup2\n        /* \"#utility.yul\":1475:1495   */\n      calldataload\n        /* \"#utility.yul\":1466:1495   */\n      swap1\n      pop\n        /* \"#utility.yul\":1504:1537   */\n      tag_77\n        /* \"#utility.yul\":1531:1536   */\n      dup2\n        /* \"#utility.yul\":1504:1537   */\n      tag_48\n      jump\t// in\n    tag_77:\n        /* \"#utility.yul\":1404:1543   */\n      swap3\n      swap2\n      pop\n      pop\n      jump\t// out\n        /* \"#utility.yul\":1549:2023   */\n    tag_12:\n        /* \"#utility.yul\":1617:1623   */\n      0x00\n        /* \"#utility.yul\":1625:1631   */\n      dup1\n        /* \"#utility.yul\":1674:1676   */\n      0x40\n        /* \"#utility.yul\":1662:1671   */\n      dup4\n        /* \"#utility.yul\":1653:1660   */\n      dup6\n        /* \"#utility.yul\":1649:1672   */\n      sub\n        /* \"#utility.yul\":1645:1677   */\n      slt\n        /* \"#utility.yul\":1642:1761   */\n      iszero\n      tag_79\n      jumpi\n        /* \"#utility.yul\":1680:1759   */\n      tag_80\n      tag_42\n      jump\t// in\n    tag_80:\n        /* \"#utility.yul\":1642:1761   */\n    tag_79:\n        /* \"#utility.yul\":1800:1801   */\n      0x00\n        /* \"#utility.yul\":1825:1878   */\n      tag_81\n        /* \"#utility.yul\":1870:1877   */\n      dup6\n        /* \"#utility.yul\":1861:1867   */\n      dup3\n        /* \"#utility.yul\":1850:1859   */\n      dup7\n        /* \"#utility.yul\":1846:1868   */\n      add\n        /* \"#utility.yul\":1825:1878   */\n      tag_47\n      jump\t// in\n    tag_81:\n        /* \"#utility.yul\":1815:1878   */\n      swap3\n      pop\n        /* \"#utility.yul\":1771:1888   */\n      pop\n        /* \"#utility.yul\":1927:1929   */\n      0x20\n        /* \"#utility.yul\":1953:2006   */\n      tag_82\n        /* \"#utility.yul\":1998:2005   */\n      dup6\n        /* \"#utility.yul\":1989:1995   */\n      dup3\n        /* \"#utility.yul\":1978:1987   */\n      dup7\n        /* \"#utility.yul\":1974:1996   */\n      add\n        /* \"#utility.yul\":1953:2006   */\n      tag_49\n      jump\t// in\n    tag_82:\n        /* \"#utility.yul\":1943:2006   */\n      swap2\n      pop\n        /* \"#utility.yul\":1898:2016   */\n      pop\n        /* \"#utility.yul\":1549:2023   */\n      swap3\n      pop\n      swap3\n      swap1\n      pop\n      jump\t// out\n        /* \"#utility.yul\":2029:2358   */\n    tag_16:\n        /* \"#utility.yul\":2088:2094   */\n      0x00\n        /* \"#utility.yul\":2137:2139   */\n      0x20\n        /* \"#utility.yul\":2125:2134   */\n      dup3\n        /* \"#utility.yul\":2116:2123   */\n      dup5\n        /* \"#utility.yul\":2112:2135   */\n      sub\n        /* \"#utility.yul\":2108:2140   */\n      slt\n        /* \"#utility.yul\":2105:2224   */\n      iszero\n      tag_84\n      jumpi\n        /* \"#utility.yul\":2143:2222   */\n      tag_85\n      tag_42\n      jump\t// in\n    tag_85:\n        /* \"#utility.yul\":2105:2224   */\n    tag_84:\n        /* \"#utility.yul\":2263:2264   */\n      0x00\n        /* \"#utility.yul\":2288:2341   */\n      tag_86\n        /* \"#utility.yul\":2333:2340   */\n      dup5\n        /* \"#utility.yul\":2324:2330   */\n      dup3\n        /* \"#utility.yul\":2313:2322   */\n      dup6\n        /* \"#utility.yul\":2309:2331   */\n      add\n        /* \"#utility.yul\":2288:2341   */\n      tag_49\n      jump\t// in\n    tag_86:\n        /* \"#utility.yul\":2278:2341   */\n      swap2\n      pop\n        /* \"#utility.yul\":2234:2351   */\n      pop\n        /* \"#utility.yul\":2029:2358   */\n      swap3\n      swap2\n      pop\n      pop\n      jump\t// out\n        /* \"#utility.yul\":2364:2533   */\n    tag_50:\n        /* \"#utility.yul\":2448:2459   */\n      0x00\n        /* \"#utility.yul\":2482:2488   */\n      dup3\n        /* \"#utility.yul\":2477:2480   */\n      dup3\n        /* \"#utility.yul\":2470:2489   */\n      mstore\n        /* \"#utility.yul\":2522:2526   */\n      0x20\n        /* \"#utility.yul\":2517:2520   */\n      dup3\n        /* \"#utility.yul\":2513:2527   */\n      add\n        /* \"#utility.yul\":2498:2527   */\n      swap1\n      pop\n        /* \"#utility.yul\":2364:2533   */\n      swap3\n      swap2\n      pop\n      pop\n      jump\t// out\n        /* \"#utility.yul\":2539:2704   */\n    tag_51:\n        /* \"#utility.yul\":2679:2696   */\n      0x796f752072206e6f74206f776e65720000000000000000000000000000000000\n        /* \"#utility.yul\":2675:2676   */\n      0x00\n        /* \"#utility.yul\":2667:2673   */\n      dup3\n        /* \"#utility.yul\":2663:2677   */\n      add\n        /* \"#utility.yul\":2656:2697   */\n      mstore\n        /* \"#utility.yul\":2539:2704   */\n      pop\n      jump\t// out\n        /* \"#utility.yul\":2710:3076   */\n    tag_52:\n        /* \"#utility.yul\":2852:2855   */\n      0x00\n        /* \"#utility.yul\":2873:2940   */\n      tag_90\n        /* \"#utility.yul\":2937:2939   */\n      0x0f\n        /* \"#utility.yul\":2932:2935   */\n      dup4\n        /* \"#utility.yul\":2873:2940   */\n      tag_50\n      jump\t// in\n    tag_90:\n        /* \"#utility.yul\":2866:2940   */\n      swap2\n      pop\n        /* \"#utility.yul\":2949:3042   */\n      tag_91\n        /* \"#utility.yul\":3038:3041   */\n      dup3\n        /* \"#utility.yul\":2949:3042   */\n      tag_51\n      jump\t// in\n    tag_91:\n        /* \"#utility.yul\":3067:3069   */\n      0x20\n        /* \"#utility.yul\":3062:3065   */\n      dup3\n        /* \"#utility.yul\":3058:3070   */\n      add\n        /* \"#utility.yul\":3051:3070   */\n      swap1\n      pop\n        /* \"#utility.yul\":2710:3076   */\n      swap2\n      swap1\n      pop\n      jump\t// out\n        /* \"#utility.yul\":3082:3501   */\n    tag_23:\n        /* \"#utility.yul\":3248:3252   */\n      0x00\n        /* \"#utility.yul\":3286:3288   */\n      0x20\n        /* \"#utility.yul\":3275:3284   */\n      dup3\n        /* \"#utility.yul\":3271:3289   */\n      add\n        /* \"#utility.yul\":3263:3289   */\n      swap1\n      pop\n        /* \"#utility.yul\":3335:3344   */\n      dup2\n        /* \"#utility.yul\":3329:3333   */\n      dup2\n        /* \"#utility.yul\":3325:3345   */\n      sub\n        /* \"#utility.yul\":3321:3322   */\n      0x00\n        /* \"#utility.yul\":3310:3319   */\n      dup4\n        /* \"#utility.yul\":3306:3323   */\n      add\n        /* \"#utility.yul\":3299:3346   */\n      mstore\n        /* \"#utility.yul\":3363:3494   */\n      tag_93\n        /* \"#utility.yul\":3489:3493   */\n      dup2\n        /* \"#utility.yul\":3363:3494   */\n      tag_52\n      jump\t// in\n    tag_93:\n        /* \"#utility.yul\":3355:3494   */\n      swap1\n      pop\n        /* \"#utility.yul\":3082:3501   */\n      swap2\n      swap1\n      pop\n      jump\t// out\n        /* \"#utility.yul\":3507:3678   */\n    tag_53:\n        /* \"#utility.yul\":3647:3670   */\n      0x796f7520646f6e7420686176652062616c616e63650000000000000000000000\n        /* \"#utility.yul\":3643:3644   */\n      0x00\n        /* \"#utility.yul\":3635:3641   */\n      dup3\n        /* \"#utility.yul\":3631:3645   */\n      add\n        /* \"#utility.yul\":3624:3671   */\n      mstore\n        /* \"#utility.yul\":3507:3678   */\n      pop\n      jump\t// out\n        /* \"#utility.yul\":3684:4050   */\n    tag_54:\n        /* \"#utility.yul\":3826:3829   */\n      0x00\n        /* \"#utility.yul\":3847:3914   */\n      tag_96\n        /* \"#utility.yul\":3911:3913   */\n      0x15\n        /* \"#utility.yul\":3906:3909   */\n      dup4\n        /* \"#utility.yul\":3847:3914   */\n      tag_50\n      jump\t// in\n    tag_96:\n        /* \"#utility.yul\":3840:3914   */\n      swap2\n      pop\n        /* \"#utility.yul\":3923:4016   */\n      tag_97\n        /* \"#utility.yul\":4012:4015   */\n      dup3\n        /* \"#utility.yul\":3923:4016   */\n      tag_53\n      jump\t// in\n    tag_97:\n        /* \"#utility.yul\":4041:4043   */\n      0x20\n        /* \"#utility.yul\":4036:4039   */\n      dup3\n        /* \"#utility.yul\":4032:4044   */\n      add\n        /* \"#utility.yul\":4025:4044   */\n      swap1\n      pop\n        /* \"#utility.yul\":3684:4050   */\n      swap2\n      swap1\n      pop\n      jump\t// out\n        /* \"#utility.yul\":4056:4475   */\n    tag_27:\n        /* \"#utility.yul\":4222:4226   */\n      0x00\n        /* \"#utility.yul\":4260:4262   */\n      0x20\n        /* \"#utility.yul\":4249:4258   */\n      dup3\n        /* \"#utility.yul\":4245:4263   */\n      add\n        /* \"#utility.yul\":4237:4263   */\n      swap1\n      pop\n        /* \"#utility.yul\":4309:4318   */\n      dup2\n        /* \"#utility.yul\":4303:4307   */\n      dup2\n        /* \"#utility.yul\":4299:4319   */\n      sub\n        /* \"#utility.yul\":4295:4296   */\n      0x00\n        /* \"#utility.yul\":4284:4293   */\n      dup4\n        /* \"#utility.yul\":4280:4297   */\n      add\n        /* \"#utility.yul\":4273:4320   */\n      mstore\n        /* \"#utility.yul\":4337:4468   */\n      tag_99\n        /* \"#utility.yul\":4463:4467   */\n      dup2\n        /* \"#utility.yul\":4337:4468   */\n      tag_54\n      jump\t// in\n    tag_99:\n        /* \"#utility.yul\":4329:4468   */\n      swap1\n      pop\n        /* \"#utility.yul\":4056:4475   */\n      swap2\n      swap1\n      pop\n      jump\t// out\n        /* \"#utility.yul\":4481:4661   */\n    tag_55:\n        /* \"#utility.yul\":4529:4606   */\n      0x4e487b7100000000000000000000000000000000000000000000000000000000\n        /* \"#utility.yul\":4526:4527   */\n      0x00\n        /* \"#utility.yul\":4519:4607   */\n      mstore\n        /* \"#utility.yul\":4626:4630   */\n      0x11\n        /* \"#utility.yul\":4623:4624   */\n      0x04\n        /* \"#utility.yul\":4616:4631   */\n      mstore\n        /* \"#utility.yul\":4650:4654   */\n      0x24\n        /* \"#utility.yul\":4647:4648   */\n      0x00\n        /* \"#utility.yul\":4640:4655   */\n      revert\n        /* \"#utility.yul\":4667:4861   */\n    tag_30:\n        /* \"#utility.yul\":4707:4711   */\n      0x00\n        /* \"#utility.yul\":4727:4747   */\n      tag_102\n        /* \"#utility.yul\":4745:4746   */\n      dup3\n        /* \"#utility.yul\":4727:4747   */\n      tag_39\n      jump\t// in\n    tag_102:\n        /* \"#utility.yul\":4722:4747   */\n      swap2\n      pop\n        /* \"#utility.yul\":4761:4781   */\n      tag_103\n        /* \"#utility.yul\":4779:4780   */\n      dup4\n        /* \"#utility.yul\":4761:4781   */\n      tag_39\n      jump\t// in\n    tag_103:\n        /* \"#utility.yul\":4756:4781   */\n      swap3\n      pop\n        /* \"#utility.yul\":4805:4806   */\n      dup3\n        /* \"#utility.yul\":4802:4803   */\n      dup3\n        /* \"#utility.yul\":4798:4807   */\n      sub\n        /* \"#utility.yul\":4790:4807   */\n      swap1\n      pop\n        /* \"#utility.yul\":4829:4830   */\n      dup2\n        /* \"#utility.yul\":4823:4827   */\n      dup2\n        /* \"#utility.yul\":4820:4831   */\n      gt\n        /* \"#utility.yul\":4817:4854   */\n      iszero\n      tag_104\n      jumpi\n        /* \"#utility.yul\":4834:4852   */\n      tag_105\n      tag_55\n      jump\t// in\n    tag_105:\n        /* \"#utility.yul\":4817:4854   */\n    tag_104:\n        /* \"#utility.yul\":4667:4861   */\n      swap3\n      swap2\n      pop\n      pop\n      jump\t// out\n        /* \"#utility.yul\":4867:5058   */\n    tag_32:\n        /* \"#utility.yul\":4907:4910   */\n      0x00\n        /* \"#utility.yul\":4926:4946   */\n      tag_107\n        /* \"#utility.yul\":4944:4945   */\n      dup3\n        /* \"#utility.yul\":4926:4946   */\n      tag_39\n      jump\t// in\n    tag_107:\n        /* \"#utility.yul\":4921:4946   */\n      swap2\n      pop\n        /* \"#utility.yul\":4960:4980   */\n      tag_108\n        /* \"#utility.yul\":4978:4979   */\n      dup4\n        /* \"#utility.yul\":4960:4980   */\n      tag_39\n      jump\t// in\n    tag_108:\n        /* \"#utility.yul\":4955:4980   */\n      swap3\n      pop\n        /* \"#utility.yul\":5003:5004   */\n      dup3\n        /* \"#utility.yul\":5000:5001   */\n      dup3\n        /* \"#utility.yul\":4996:5005   */\n      add\n        /* \"#utility.yul\":4989:5005   */\n      swap1\n      pop\n        /* \"#utility.yul\":5024:5027   */\n      dup1\n        /* \"#utility.yul\":5021:5022   */\n      dup3\n        /* \"#utility.yul\":5018:5028   */\n      gt\n        /* \"#utility.yul\":5015:5051   */\n      iszero\n      tag_109\n      jumpi\n        /* \"#utility.yul\":5031:5049   */\n      tag_110\n      tag_55\n      jump\t// in\n    tag_110:\n        /* \"#utility.yul\":5015:5051   */\n    tag_109:\n        /* \"#utility.yul\":4867:5058   */\n      swap3\n      swap2\n      pop\n      pop\n      jump\t// out\n        /* \"#utility.yul\":5064:5244   */\n    tag_36:\n        /* \"#utility.yul\":5112:5189   */\n      0x4e487b7100000000000000000000000000000000000000000000000000000000\n        /* \"#utility.yul\":5109:5110   */\n      0x00\n        /* \"#utility.yul\":5102:5190   */\n      mstore\n        /* \"#utility.yul\":5209:5213   */\n      0x01\n        /* \"#utility.yul\":5206:5207   */\n      0x04\n        /* \"#utility.yul\":5199:5214   */\n      mstore\n        /* \"#utility.yul\":5233:5237   */\n      0x24\n        /* \"#utility.yul\":5230:5231   */\n      0x00\n        /* \"#utility.yul\":5223:5238   */\n      revert\n\n    auxdata: 0xa264697066735822122029ca2f3213e99e55050b8081e2474185e35953973c742b55b70f61a3d43d00dd64736f6c63430008160033\n}\n",
				"bytecode": {
					"linkReferences": {},
					"object": "608060405234801561000f575f80fd5b503360015f6101000a81548173ffffffffffffffffffffffffffffffffffffffff021916908373ffffffffffffffffffffffffffffffffffffffff1602179055506107048061005d5f395ff3fe608060405234801561000f575f80fd5b506004361061003f575f3560e01c80634d9b3d5d14610043578063a9059cbb14610061578063cd1e75291461007d575b5f80fd5b61004b6100ad565b6040516100589190610424565b60405180910390f35b61007b600480360381019061007691906104c5565b6100f0565b005b61009760048036038101906100929190610503565b610375565b6040516100a49190610424565b60405180910390f35b5f805f3373ffffffffffffffffffffffffffffffffffffffff1673ffffffffffffffffffffffffffffffffffffffff1681526020019081526020015f2054905090565b3373ffffffffffffffffffffffffffffffffffffffff1660015f9054906101000a900473ffffffffffffffffffffffffffffffffffffffff1673ffffffffffffffffffffffffffffffffffffffff161461017f576040517f08c379a000000000000000000000000000000000000000000000000000000000815260040161017690610588565b60405180910390fd5b805f803373ffffffffffffffffffffffffffffffffffffffff1673ffffffffffffffffffffffffffffffffffffffff1681526020019081526020015f205410156101fe576040517f08c379a00000000000000000000000000000000000000000000000000000000081526004016101f5906105f0565b60405180910390fd5b8173ffffffffffffffffffffffffffffffffffffffff163373ffffffffffffffffffffffffffffffffffffffff1603610235575f80fd5b5f805f3373ffffffffffffffffffffffffffffffffffffffff1673ffffffffffffffffffffffffffffffffffffffff1681526020019081526020015f20549050815f803373ffffffffffffffffffffffffffffffffffffffff1673ffffffffffffffffffffffffffffffffffffffff1681526020019081526020015f205f8282546102c0919061063b565b92505081905550815f808573ffffffffffffffffffffffffffffffffffffffff1673ffffffffffffffffffffffffffffffffffffffff1681526020019081526020015f205f828254610312919061066e565b925050819055508181610325919061063b565b5f803373ffffffffffffffffffffffffffffffffffffffff1673ffffffffffffffffffffffffffffffffffffffff1681526020019081526020015f2054146103705761036f6106a1565b5b505050565b5f815f803373ffffffffffffffffffffffffffffffffffffffff1673ffffffffffffffffffffffffffffffffffffffff1681526020019081526020015f205f8282546103c1919061066e565b925050819055505f803373ffffffffffffffffffffffffffffffffffffffff1673ffffffffffffffffffffffffffffffffffffffff1681526020019081526020015f20549050919050565b5f819050919050565b61041e8161040c565b82525050565b5f6020820190506104375f830184610415565b92915050565b5f80fd5b5f73ffffffffffffffffffffffffffffffffffffffff82169050919050565b5f61046a82610441565b9050919050565b61047a81610460565b8114610484575f80fd5b50565b5f8135905061049581610471565b92915050565b6104a48161040c565b81146104ae575f80fd5b50565b5f813590506104bf8161049b565b92915050565b5f80604083850312156104db576104da61043d565b5b5f6104e885828601610487565b92505060206104f9858286016104b1565b9150509250929050565b5f602082840312156105185761051761043d565b5b5f610525848285016104b1565b91505092915050565b5f82825260208201905092915050565b7f796f752072206e6f74206f776e657200000000000000000000000000000000005f82015250565b5f610572600f8361052e565b915061057d8261053e565b602082019050919050565b5f6020820190508181035f83015261059f81610566565b9050919050565b7f796f7520646f6e7420686176652062616c616e636500000000000000000000005f82015250565b5f6105da60158361052e565b91506105e5826105a6565b602082019050919050565b5f6020820190508181035f830152610607816105ce565b9050919050565b7f4e487b71000000000000000000000000000000000000000000000000000000005f52601160045260245ffd5b5f6106458261040c565b91506106508361040c565b92508282039050818111156106685761066761060e565b5b92915050565b5f6106788261040c565b91506106838361040c565b925082820190508082111561069b5761069a61060e565b5b92915050565b7f4e487b71000000000000000000000000000000000000000000000000000000005f52600160045260245ffdfea264697066735822122029ca2f3213e99e55050b8081e2474185e35953973c742b55b70f61a3d43d00dd64736f6c63430008160033",
					"opcodes": "PUSH1 0x80 PUSH1 0x40 MSTORE CALLVALUE DUP1 ISZERO PUSH2 0xF JUMPI PUSH0 DUP1 REVERT JUMPDEST POP CALLER PUSH1 0x1 PUSH0 PUSH2 0x100 EXP DUP2 SLOAD DUP2 PUSH20 0xFFFFFFFFFFFFFFFFFFFFFFFFFFFFFFFFFFFFFFFF MUL NOT AND SWAP1 DUP4 PUSH20 0xFFFFFFFFFFFFFFFFFFFFFFFFFFFFFFFFFFFFFFFF AND MUL OR SWAP1 SSTORE POP PUSH2 0x704 DUP1 PUSH2 0x5D PUSH0 CODECOPY PUSH0 RETURN INVALID PUSH1 0x80 PUSH1 0x40 MSTORE CALLVALUE DUP1 ISZERO PUSH2 0xF JUMPI PUSH0 DUP1 REVERT JUMPDEST POP PUSH1 0x4 CALLDATASIZE LT PUSH2 0x3F JUMPI PUSH0 CALLDATALOAD PUSH1 0xE0 SHR DUP1 PUSH4 0x4D9B3D5D EQ PUSH2 0x43 JUMPI DUP1 PUSH4 0xA9059CBB EQ PUSH2 0x61 JUMPI DUP1 PUSH4 0xCD1E7529 EQ PUSH2 0x7D JUMPI JUMPDEST PUSH0 DUP1 REVERT JUMPDEST PUSH2 0x4B PUSH2 0xAD JUMP JUMPDEST PUSH1 0x40 MLOAD PUSH2 0x58 SWAP2 SWAP1 PUSH2 0x424 JUMP JUMPDEST PUSH1 0x40 MLOAD DUP1 SWAP2 SUB SWAP1 RETURN JUMPDEST PUSH2 0x7B PUSH1 0x4 DUP1 CALLDATASIZE SUB DUP2 ADD SWAP1 PUSH2 0x76 SWAP2 SWAP1 PUSH2 0x4C5 JUMP JUMPDEST PUSH2 0xF0 JUMP JUMPDEST STOP JUMPDEST PUSH2 0x97 PUSH1 0x4 DUP1 CALLDATASIZE SUB DUP2 ADD SWAP1 PUSH2 0x92 SWAP2 SWAP1 PUSH2 0x503 JUMP JUMPDEST PUSH2 0x375 JUMP JUMPDEST PUSH1 0x40 MLOAD PUSH2 0xA4 SWAP2 SWAP1 PUSH2 0x424 JUMP JUMPDEST PUSH1 0x40 MLOAD DUP1 SWAP2 SUB SWAP1 RETURN JUMPDEST PUSH0 DUP1 PUSH0 CALLER PUSH20 0xFFFFFFFFFFFFFFFFFFFFFFFFFFFFFFFFFFFFFFFF AND PUSH20 0xFFFFFFFFFFFFFFFFFFFFFFFFFFFFFFFFFFFFFFFF AND DUP2 MSTORE PUSH1 0x20 ADD SWAP1 DUP2 MSTORE PUSH1 0x20 ADD PUSH0 KECCAK256 SLOAD SWAP1 POP SWAP1 JUMP JUMPDEST CALLER PUSH20 0xFFFFFFFFFFFFFFFFFFFFFFFFFFFFFFFFFFFFFFFF AND PUSH1 0x1 PUSH0 SWAP1 SLOAD SWAP1 PUSH2 0x100 EXP SWAP1 DIV PUSH20 0xFFFFFFFFFFFFFFFFFFFFFFFFFFFFFFFFFFFFFFFF AND PUSH20 0xFFFFFFFFFFFFFFFFFFFFFFFFFFFFFFFFFFFFFFFF AND EQ PUSH2 0x17F JUMPI PUSH1 0x40 MLOAD PUSH32 0x8C379A000000000000000000000000000000000000000000000000000000000 DUP2 MSTORE PUSH1 0x4 ADD PUSH2 0x176 SWAP1 PUSH2 0x588 JUMP JUMPDEST PUSH1 0x40 MLOAD DUP1 SWAP2 SUB SWAP1 REVERT JUMPDEST DUP1 PUSH0 DUP1 CALLER PUSH20 0xFFFFFFFFFFFFFFFFFFFFFFFFFFFFFFFFFFFFFFFF AND PUSH20 0xFFFFFFFFFFFFFFFFFFFFFFFFFFFFFFFFFFFFFFFF AND DUP2 MSTORE PUSH1 0x20 ADD SWAP1 DUP2 MSTORE PUSH1 0x20 ADD PUSH0 KECCAK256 SLOAD LT ISZERO PUSH2 0x1FE JUMPI PUSH1 0x40 MLOAD PUSH32 0x8C379A000000000000000000000000000000000000000000000000000000000 DUP2 MSTORE PUSH1 0x4 ADD PUSH2 0x1F5 SWAP1 PUSH2 0x5F0 JUMP JUMPDEST PUSH1 0x40 MLOAD DUP1 SWAP2 SUB SWAP1 REVERT JUMPDEST DUP2 PUSH20 0xFFFFFFFFFFFFFFFFFFFFFFFFFFFFFFFFFFFFFFFF AND CALLER PUSH20 0xFFFFFFFFFFFFFFFFFFFFFFFFFFFFFFFFFFFFFFFF AND SUB PUSH2 0x235 JUMPI PUSH0 DUP1 REVERT JUMPDEST PUSH0 DUP1 PUSH0 CALLER PUSH20 0xFFFFFFFFFFFFFFFFFFFFFFFFFFFFFFFFFFFFFFFF AND PUSH20 0xFFFFFFFFFFFFFFFFFFFFFFFFFFFFFFFFFFFFFFFF AND DUP2 MSTORE PUSH1 0x20 ADD SWAP1 DUP2 MSTORE PUSH1 0x20 ADD PUSH0 KECCAK256 SLOAD SWAP1 POP DUP2 PUSH0 DUP1 CALLER PUSH20 0xFFFFFFFFFFFFFFFFFFFFFFFFFFFFFFFFFFFFFFFF AND PUSH20 0xFFFFFFFFFFFFFFFFFFFFFFFFFFFFFFFFFFFFFFFF AND DUP2 MSTORE PUSH1 0x20 ADD SWAP1 DUP2 MSTORE PUSH1 0x20 ADD PUSH0 KECCAK256 PUSH0 DUP3 DUP3 SLOAD PUSH2 0x2C0 SWAP2 SWAP1 PUSH2 0x63B JUMP JUMPDEST SWAP3 POP POP DUP2 SWAP1 SSTORE POP DUP2 PUSH0 DUP1 DUP6 PUSH20 0xFFFFFFFFFFFFFFFFFFFFFFFFFFFFFFFFFFFFFFFF AND PUSH20 0xFFFFFFFFFFFFFFFFFFFFFFFFFFFFFFFFFFFFFFFF AND DUP2 MSTORE PUSH1 0x20 ADD SWAP1 DUP2 MSTORE PUSH1 0x20 ADD PUSH0 KECCAK256 PUSH0 DUP3 DUP3 SLOAD PUSH2 0x312 SWAP2 SWAP1 PUSH2 0x66E JUMP JUMPDEST SWAP3 POP POP DUP2 SWAP1 SSTORE POP DUP2 DUP2 PUSH2 0x325 SWAP2 SWAP1 PUSH2 0x63B JUMP JUMPDEST PUSH0 DUP1 CALLER PUSH20 0xFFFFFFFFFFFFFFFFFFFFFFFFFFFFFFFFFFFFFFFF AND PUSH20 0xFFFFFFFFFFFFFFFFFFFFFFFFFFFFFFFFFFFFFFFF AND DUP2 MSTORE PUSH1 0x20 ADD SWAP1 DUP2 MSTORE PUSH1 0x20 ADD PUSH0 KECCAK256 SLOAD EQ PUSH2 0x370 JUMPI PUSH2 0x36F PUSH2 0x6A1 JUMP JUMPDEST JUMPDEST POP POP POP JUMP JUMPDEST PUSH0 DUP2 PUSH0 DUP1 CALLER PUSH20 0xFFFFFFFFFFFFFFFFFFFFFFFFFFFFFFFFFFFFFFFF AND PUSH20 0xFFFFFFFFFFFFFFFFFFFFFFFFFFFFFFFFFFFFFFFF AND DUP2 MSTORE PUSH1 0x20 ADD SWAP1 DUP2 MSTORE PUSH1 0x20 ADD PUSH0 KECCAK256 PUSH0 DUP3 DUP3 SLOAD PUSH2 0x3C1 SWAP2 SWAP1 PUSH2 0x66E JUMP JUMPDEST SWAP3 POP POP DUP2 SWAP1 SSTORE POP PUSH0 DUP1 CALLER PUSH20 0xFFFFFFFFFFFFFFFFFFFFFFFFFFFFFFFFFFFFFFFF AND PUSH20 0xFFFFFFFFFFFFFFFFFFFFFFFFFFFFFFFFFFFFFFFF AND DUP2 MSTORE PUSH1 0x20 ADD SWAP1 DUP2 MSTORE PUSH1 0x20 ADD PUSH0 KECCAK256 SLOAD SWAP1 POP SWAP2 SWAP1 POP JUMP JUMPDEST PUSH0 DUP2 SWAP1 POP SWAP2 SWAP1 POP JUMP JUMPDEST PUSH2 0x41E DUP2 PUSH2 0x40C JUMP JUMPDEST DUP3 MSTORE POP POP JUMP JUMPDEST PUSH0 PUSH1 0x20 DUP3 ADD SWAP1 POP PUSH2 0x437 PUSH0 DUP4 ADD DUP5 PUSH2 0x415 JUMP JUMPDEST SWAP3 SWAP2 POP POP JUMP JUMPDEST PUSH0 DUP1 REVERT JUMPDEST PUSH0 PUSH20 0xFFFFFFFFFFFFFFFFFFFFFFFFFFFFFFFFFFFFFFFF DUP3 AND SWAP1 POP SWAP2 SWAP1 POP JUMP JUMPDEST PUSH0 PUSH2 0x46A DUP3 PUSH2 0x441 JUMP JUMPDEST SWAP1 POP SWAP2 SWAP1 POP JUMP JUMPDEST PUSH2 0x47A DUP2 PUSH2 0x460 JUMP JUMPDEST DUP2 EQ PUSH2 0x484 JUMPI PUSH0 DUP1 REVERT JUMPDEST POP JUMP JUMPDEST PUSH0 DUP2 CALLDATALOAD SWAP1 POP PUSH2 0x495 DUP2 PUSH2 0x471 JUMP JUMPDEST SWAP3 SWAP2 POP POP JUMP JUMPDEST PUSH2 0x4A4 DUP2 PUSH2 0x40C JUMP JUMPDEST DUP2 EQ PUSH2 0x4AE JUMPI PUSH0 DUP1 REVERT JUMPDEST POP JUMP JUMPDEST PUSH0 DUP2 CALLDATALOAD SWAP1 POP PUSH2 0x4BF DUP2 PUSH2 0x49B JUMP JUMPDEST SWAP3 SWAP2 POP POP JUMP JUMPDEST PUSH0 DUP1 PUSH1 0x40 DUP4 DUP6 SUB SLT ISZERO PUSH2 0x4DB JUMPI PUSH2 0x4DA PUSH2 0x43D JUMP JUMPDEST JUMPDEST PUSH0 PUSH2 0x4E8 DUP6 DUP3 DUP7 ADD PUSH2 0x487 JUMP JUMPDEST SWAP3 POP POP PUSH1 0x20 PUSH2 0x4F9 DUP6 DUP3 DUP7 ADD PUSH2 0x4B1 JUMP JUMPDEST SWAP2 POP POP SWAP3 POP SWAP3 SWAP1 POP JUMP JUMPDEST PUSH0 PUSH1 0x20 DUP3 DUP5 SUB SLT ISZERO PUSH2 0x518 JUMPI PUSH2 0x517 PUSH2 0x43D JUMP JUMPDEST JUMPDEST PUSH0 PUSH2 0x525 DUP5 DUP3 DUP6 ADD PUSH2 0x4B1 JUMP JUMPDEST SWAP2 POP POP SWAP3 SWAP2 POP POP JUMP JUMPDEST PUSH0 DUP3 DUP3 MSTORE PUSH1 0x20 DUP3 ADD SWAP1 POP SWAP3 SWAP2 POP POP JUMP JUMPDEST PUSH32 0x796F752072206E6F74206F776E65720000000000000000000000000000000000 PUSH0 DUP3 ADD MSTORE POP JUMP JUMPDEST PUSH0 PUSH2 0x572 PUSH1 0xF DUP4 PUSH2 0x52E JUMP JUMPDEST SWAP2 POP PUSH2 0x57D DUP3 PUSH2 0x53E JUMP JUMPDEST PUSH1 0x20 DUP3 ADD SWAP1 POP SWAP2 SWAP1 POP JUMP JUMPDEST PUSH0 PUSH1 0x20 DUP3 ADD SWAP1 POP DUP2 DUP2 SUB PUSH0 DUP4 ADD MSTORE PUSH2 0x59F DUP2 PUSH2 0x566 JUMP JUMPDEST SWAP1 POP SWAP2 SWAP1 POP JUMP JUMPDEST PUSH32 0x796F7520646F6E7420686176652062616C616E63650000000000000000000000 PUSH0 DUP3 ADD MSTORE POP JUMP JUMPDEST PUSH0 PUSH2 0x5DA PUSH1 0x15 DUP4 PUSH2 0x52E JUMP JUMPDEST SWAP2 POP PUSH2 0x5E5 DUP3 PUSH2 0x5A6 JUMP JUMPDEST PUSH1 0x20 DUP3 ADD SWAP1 POP SWAP2 SWAP1 POP JUMP JUMPDEST PUSH0 PUSH1 0x20 DUP3 ADD SWAP1 POP DUP2 DUP2 SUB PUSH0 DUP4 ADD MSTORE PUSH2 0x607 DUP2 PUSH2 0x5CE JUMP JUMPDEST SWAP1 POP SWAP2 SWAP1 POP JUMP JUMPDEST PUSH32 0x4E487B7100000000000000000000000000000000000000000000000000000000 PUSH0 MSTORE PUSH1 0x11 PUSH1 0x4 MSTORE PUSH1 0x24 PUSH0 REVERT JUMPDEST PUSH0 PUSH2 0x645 DUP3 PUSH2 0x40C JUMP JUMPDEST SWAP2 POP PUSH2 0x650 DUP4 PUSH2 0x40C JUMP JUMPDEST SWAP3 POP DUP3 DUP3 SUB SWAP1 POP DUP2 DUP2 GT ISZERO PUSH2 0x668 JUMPI PUSH2 0x667 PUSH2 0x60E JUMP JUMPDEST JUMPDEST SWAP3 SWAP2 POP POP JUMP JUMPDEST PUSH0 PUSH2 0x678 DUP3 PUSH2 0x40C JUMP JUMPDEST SWAP2 POP PUSH2 0x683 DUP4 PUSH2 0x40C JUMP JUMPDEST SWAP3 POP DUP3 DUP3 ADD SWAP1 POP DUP1 DUP3 GT ISZERO PUSH2 0x69B JUMPI PUSH2 0x69A PUSH2 0x60E JUMP JUMPDEST JUMPDEST SWAP3 SWAP2 POP POP JUMP JUMPDEST PUSH32 0x4E487B7100000000000000000000000000000000000000000000000000000000 PUSH0 MSTORE PUSH1 0x1 PUSH1 0x4 MSTORE PUSH1 0x24 PUSH0 REVERT INVALID LOG2 PUSH5 0x6970667358 0x22 SLT KECCAK256 0x29 0xCA 0x2F ORIGIN SGT 0xE9 SWAP15 SSTORE SDIV SIGNEXTEND DUP1 DUP2 0xE2 SELFBALANCE COINBASE DUP6 0xE3 MSIZE MSTORE8 SWAP8 EXTCODECOPY PUSH21 0x2B55B70F61A3D43D00DD64736F6C63430008160033 "
				},
				"gasEstimates": {
					"creation": {
						"codeDepositCost": "359200",
						"executionCost": "24662",
						"totalCost": "383862"
					},
					"external": {
						"addbalance(uint256)": "infinite",
						"getbalance()": "2497",
						"transfer(address,uint256)": "infinite"
					}
				},
				"methodIdentifiers": {
					"addbalance(uint256)": "cd1e7529",
					"getbalance()": "4d9b3d5d",
					"transfer(address,uint256)": "a9059cbb"
				}
			},
			"storageLayout": {
				"storage": [
					{
						"astId": 5,
						"contract": "contracts/bank.sol:bank",
						"label": "balance",
						"offset": 0,
						"slot": "0",
						"type": "t_mapping(t_address,t_uint256)"
					},
					{
						"astId": 7,
						"contract": "contracts/bank.sol:bank",
						"label": "owner",
						"offset": 0,
						"slot": "1",
						"type": "t_address"
					}
				],
				"types": {
					"t_address": {
						"encoding": "inplace",
						"label": "address",
						"numberOfBytes": "20"
					},
					"t_mapping(t_address,t_uint256)": {
						"encoding": "mapping",
						"key": "t_address",
						"label": "mapping(address => uint256)",
						"numberOfBytes": "32",
						"value": "t_uint256"
					},
					"t_uint256": {
						"encoding": "inplace",
						"label": "uint256",
						"numberOfBytes": "32"
					}
				}
			},
			"userdoc": {
				"kind": "user",
				"methods": {},
				"version": 1
			}
		}
	}
}